{
  "_format": "hh-sol-artifact-1",
  "contractName": "MenthaPoolBase",
  "sourceName": "contracts/MenthaPoolBase.sol",
  "abi": [
    {
      "anonymous": false,
      "inputs": [
        {
          "indexed": true,
          "internalType": "address",
          "name": "owner",
          "type": "address"
        },
        {
          "indexed": true,
          "internalType": "address",
          "name": "spender",
          "type": "address"
        },
        {
          "indexed": false,
          "internalType": "uint256",
          "name": "value",
          "type": "uint256"
        }
      ],
      "name": "Approval",
      "type": "event"
    },
    {
      "anonymous": false,
      "inputs": [
        {
          "indexed": true,
          "internalType": "address",
          "name": "previousOwner",
          "type": "address"
        },
        {
          "indexed": true,
          "internalType": "address",
          "name": "newOwner",
          "type": "address"
        }
      ],
      "name": "OwnershipTransferred",
      "type": "event"
    },
    {
      "anonymous": false,
      "inputs": [
        {
          "indexed": false,
          "internalType": "address",
          "name": "account",
          "type": "address"
        }
      ],
      "name": "Paused",
      "type": "event"
    },
    {
      "anonymous": false,
      "inputs": [
        {
          "indexed": true,
          "internalType": "address",
          "name": "from",
          "type": "address"
        },
        {
          "indexed": true,
          "internalType": "address",
          "name": "to",
          "type": "address"
        },
        {
          "indexed": false,
          "internalType": "uint256",
          "name": "value",
          "type": "uint256"
        }
      ],
      "name": "Transfer",
      "type": "event"
    },
    {
      "anonymous": false,
      "inputs": [
        {
          "indexed": false,
          "internalType": "address",
          "name": "account",
          "type": "address"
        }
      ],
      "name": "Unpaused",
      "type": "event"
    },
    {
      "inputs": [],
      "name": "TOKEN_NAME_SUFFIX",
      "outputs": [
        {
          "internalType": "string",
          "name": "",
          "type": "string"
        }
      ],
      "stateMutability": "view",
      "type": "function"
    },
    {
      "inputs": [],
      "name": "TOKEN_SYMBOL_PREFIX",
      "outputs": [
        {
          "internalType": "string",
          "name": "",
          "type": "string"
        }
      ],
      "stateMutability": "view",
      "type": "function"
    },
    {
      "inputs": [
        {
          "internalType": "address",
          "name": "owner",
          "type": "address"
        },
        {
          "internalType": "address",
          "name": "spender",
          "type": "address"
        }
      ],
      "name": "allowance",
      "outputs": [
        {
          "internalType": "uint256",
          "name": "",
          "type": "uint256"
        }
      ],
      "stateMutability": "view",
      "type": "function"
    },
    {
      "inputs": [
        {
          "internalType": "address",
          "name": "spender",
          "type": "address"
        },
        {
          "internalType": "uint256",
          "name": "amount",
          "type": "uint256"
        }
      ],
      "name": "approve",
      "outputs": [
        {
          "internalType": "bool",
          "name": "",
          "type": "bool"
        }
      ],
      "stateMutability": "nonpayable",
      "type": "function"
    },
    {
      "inputs": [
        {
          "internalType": "address",
          "name": "account",
          "type": "address"
        }
      ],
      "name": "balanceOf",
      "outputs": [
        {
          "internalType": "uint256",
          "name": "",
          "type": "uint256"
        }
      ],
      "stateMutability": "view",
      "type": "function"
    },
    {
      "inputs": [],
      "name": "decimals",
      "outputs": [
        {
          "internalType": "uint8",
          "name": "",
          "type": "uint8"
        }
      ],
      "stateMutability": "view",
      "type": "function"
    },
    {
      "inputs": [
        {
          "internalType": "address",
          "name": "spender",
          "type": "address"
        },
        {
          "internalType": "uint256",
          "name": "subtractedValue",
          "type": "uint256"
        }
      ],
      "name": "decreaseAllowance",
      "outputs": [
        {
          "internalType": "bool",
          "name": "",
          "type": "bool"
        }
      ],
      "stateMutability": "nonpayable",
      "type": "function"
    },
    {
      "inputs": [
        {
          "internalType": "address",
          "name": "spender",
          "type": "address"
        },
        {
          "internalType": "uint256",
          "name": "addedValue",
          "type": "uint256"
        }
      ],
      "name": "increaseAllowance",
      "outputs": [
        {
          "internalType": "bool",
          "name": "",
          "type": "bool"
        }
      ],
      "stateMutability": "nonpayable",
      "type": "function"
    },
    {
      "inputs": [],
      "name": "name",
      "outputs": [
        {
          "internalType": "string",
          "name": "",
          "type": "string"
        }
      ],
      "stateMutability": "view",
      "type": "function"
    },
    {
      "inputs": [],
      "name": "numberOfTickets",
      "outputs": [
        {
          "internalType": "uint256",
          "name": "",
          "type": "uint256"
        }
      ],
      "stateMutability": "view",
      "type": "function"
    },
    {
      "inputs": [],
      "name": "owner",
      "outputs": [
        {
          "internalType": "address",
          "name": "",
          "type": "address"
        }
      ],
      "stateMutability": "view",
      "type": "function"
    },
    {
      "inputs": [],
      "name": "paused",
      "outputs": [
        {
          "internalType": "bool",
          "name": "",
          "type": "bool"
        }
      ],
      "stateMutability": "view",
      "type": "function"
    },
    {
      "inputs": [],
      "name": "renounceOwnership",
      "outputs": [],
      "stateMutability": "nonpayable",
      "type": "function"
    },
    {
      "inputs": [],
      "name": "symbol",
      "outputs": [
        {
          "internalType": "string",
          "name": "",
          "type": "string"
        }
      ],
      "stateMutability": "view",
      "type": "function"
    },
    {
      "inputs": [
        {
          "internalType": "address",
          "name": "_addr",
          "type": "address"
        }
      ],
      "name": "ticketsOf",
      "outputs": [
        {
          "internalType": "uint256",
          "name": "",
          "type": "uint256"
        }
      ],
      "stateMutability": "view",
      "type": "function"
    },
    {
      "inputs": [],
      "name": "totalSupply",
      "outputs": [
        {
          "internalType": "uint256",
          "name": "",
          "type": "uint256"
        }
      ],
      "stateMutability": "view",
      "type": "function"
    },
    {
      "inputs": [
        {
          "internalType": "address",
          "name": "recipient",
          "type": "address"
        },
        {
          "internalType": "uint256",
          "name": "amount",
          "type": "uint256"
        }
      ],
      "name": "transfer",
      "outputs": [
        {
          "internalType": "bool",
          "name": "",
          "type": "bool"
        }
      ],
      "stateMutability": "nonpayable",
      "type": "function"
    },
    {
      "inputs": [
        {
          "internalType": "address",
          "name": "sender",
          "type": "address"
        },
        {
          "internalType": "address",
          "name": "recipient",
          "type": "address"
        },
        {
          "internalType": "uint256",
          "name": "amount",
          "type": "uint256"
        }
      ],
      "name": "transferFrom",
      "outputs": [
        {
          "internalType": "bool",
          "name": "",
          "type": "bool"
        }
      ],
      "stateMutability": "nonpayable",
      "type": "function"
    },
    {
      "inputs": [
        {
          "internalType": "address",
          "name": "newOwner",
          "type": "address"
        }
      ],
      "name": "transferOwnership",
      "outputs": [],
      "stateMutability": "nonpayable",
      "type": "function"
    }
  ],
  "bytecode": "0x608060405234801561001057600080fd5b50610cba806100206000396000f3fe608060405234801561001057600080fd5b50600436106101215760003560e01c8063557323c7116100ad57806395d89b411161007157806395d89b4114610219578063a457c2d714610221578063a9059cbb14610234578063dd62ed3e14610247578063f2fde38b1461025a57610121565b8063557323c7146101d75780635c975abb146101df57806370a08231146101e7578063715018a6146101fa5780638da5cb5b1461020457610121565b80632940e828116100f45780632940e8281461018c578063313ce5671461019457806331657926146101a957806339509351146101bc57806345745c10146101cf57610121565b806306fdde0314610126578063095ea7b31461014457806318160ddd1461016457806323b872dd14610179575b600080fd5b61012e61026d565b60405161013b919061095f565b60405180910390f35b610157610152366004610917565b6102ff565b60405161013b9190610954565b61016c61031c565b60405161013b9190610c0e565b6101576101873660046108dc565b610322565b61012e6103bb565b61019c6103da565b60405161013b9190610c17565b61016c6101b7366004610889565b6103df565b6101576101ca366004610917565b6103fe565b61016c610452565b61012e610458565b610157610483565b61016c6101f5366004610889565b61048c565b6102026104a7565b005b61020c6104f2565b60405161013b9190610940565b61012e610501565b61015761022f366004610917565b610510565b610157610242366004610917565b610589565b61016c6102553660046108aa565b61059d565b610202610268366004610889565b6105c8565b60606036805461027c90610c49565b80601f01602080910402602001604051908101604052809291908181526020018280546102a890610c49565b80156102f55780601f106102ca576101008083540402835291602001916102f5565b820191906000526020600020905b8154815290600101906020018083116102d857829003601f168201915b5050505050905090565b600061031361030c610639565b848461063d565b50600192915050565b60355490565b600061032f8484846106f1565b6001600160a01b038416600090815260346020526040812081610350610639565b6001600160a01b03166001600160a01b031681526020019081526020016000205490508281101561039c5760405162461bcd60e51b815260040161039390610ac3565b60405180910390fd5b6103b0856103a8610639565b85840361063d565b506001949350505050565b604051806040016040528060038152602001620dae8d60eb1b81525081565b601290565b6001600160a01b038116600090815260fb60205260409020545b919050565b600061031361040b610639565b848460346000610419610639565b6001600160a01b03908116825260208083019390935260409182016000908120918b168152925290205461044d9190610c25565b61063d565b60fd5481565b6040518060400160405280600f81526020016e26281026b2b73a3430902a37b5b2b760891b81525081565b60c95460ff1690565b6001600160a01b031660009081526033602052604090205490565b6104af610639565b6001600160a01b03166104c06104f2565b6001600160a01b0316146104e65760405162461bcd60e51b815260040161039390610b0b565b6104f0600061081b565b565b6065546001600160a01b031690565b60606037805461027c90610c49565b6000806034600061051f610639565b6001600160a01b039081168252602080830193909352604091820160009081209188168152925290205490508281101561056b5760405162461bcd60e51b815260040161039390610bc9565b61057f610576610639565b8585840361063d565b5060019392505050565b6000610313610596610639565b84846106f1565b6001600160a01b03918216600090815260346020908152604080832093909416825291909152205490565b6105d0610639565b6001600160a01b03166105e16104f2565b6001600160a01b0316146106075760405162461bcd60e51b815260040161039390610b0b565b6001600160a01b03811661062d5760405162461bcd60e51b8152600401610393906109f5565b6106368161081b565b50565b3390565b6001600160a01b0383166106635760405162461bcd60e51b815260040161039390610b85565b6001600160a01b0382166106895760405162461bcd60e51b815260040161039390610a3b565b6001600160a01b0380841660008181526034602090815260408083209487168084529490915290819020849055517f8c5be1e5ebec7d5bd14f71427d1e84f3dd0314c0f7b2291e5b200ac8c7c3b925906106e4908590610c0e565b60405180910390a3505050565b6001600160a01b0383166107175760405162461bcd60e51b815260040161039390610b40565b6001600160a01b03821661073d5760405162461bcd60e51b8152600401610393906109b2565b61074883838361086d565b6001600160a01b038316600090815260336020526040902054818110156107815760405162461bcd60e51b815260040161039390610a7d565b6001600160a01b038085166000908152603360205260408082208585039055918516815290812080548492906107b8908490610c25565b92505081905550826001600160a01b0316846001600160a01b03167fddf252ad1be2c89b69c2b068fc378daa952ba7f163c4a11628f55a4df523b3ef846040516108029190610c0e565b60405180910390a361081584848461086d565b50505050565b606580546001600160a01b038381166001600160a01b0319831681179093556040519116919082907f8be0079c531659141344cd1fd0a4f28419497f9722a3daafe3b4186f6b6457e090600090a35050565b505050565b80356001600160a01b03811681146103f957600080fd5b60006020828403121561089a578081fd5b6108a382610872565b9392505050565b600080604083850312156108bc578081fd5b6108c583610872565b91506108d360208401610872565b90509250929050565b6000806000606084860312156108f0578081fd5b6108f984610872565b925061090760208501610872565b9150604084013590509250925092565b60008060408385031215610929578182fd5b61093283610872565b946020939093013593505050565b6001600160a01b0391909116815260200190565b901515815260200190565b6000602080835283518082850152825b8181101561098b5785810183015185820160400152820161096f565b8181111561099c5783604083870101525b50601f01601f1916929092016040019392505050565b60208082526023908201527f45524332303a207472616e7366657220746f20746865207a65726f206164647260408201526265737360e81b606082015260800190565b60208082526026908201527f4f776e61626c653a206e6577206f776e657220697320746865207a65726f206160408201526564647265737360d01b606082015260800190565b60208082526022908201527f45524332303a20617070726f766520746f20746865207a65726f206164647265604082015261737360f01b606082015260800190565b60208082526026908201527f45524332303a207472616e7366657220616d6f756e7420657863656564732062604082015265616c616e636560d01b606082015260800190565b60208082526028908201527f45524332303a207472616e7366657220616d6f756e74206578636565647320616040820152676c6c6f77616e636560c01b606082015260800190565b6020808252818101527f4f776e61626c653a2063616c6c6572206973206e6f7420746865206f776e6572604082015260600190565b60208082526025908201527f45524332303a207472616e736665722066726f6d20746865207a65726f206164604082015264647265737360d81b606082015260800190565b60208082526024908201527f45524332303a20617070726f76652066726f6d20746865207a65726f206164646040820152637265737360e01b606082015260800190565b60208082526025908201527f45524332303a2064656372656173656420616c6c6f77616e63652062656c6f77604082015264207a65726f60d81b606082015260800190565b90815260200190565b60ff91909116815260200190565b60008219821115610c4457634e487b7160e01b81526011600452602481fd5b500190565b600281046001821680610c5d57607f821691505b60208210811415610c7e57634e487b7160e01b600052602260045260246000fd5b5091905056fea264697066735822122028f60245f4a9f436a7cc420b7442af7688ab4771fc19f3d28701b0bff9b5ec9364736f6c63430008000033",
  "linkReferences": {},
  "deployedLinkReferences": {}
}