{
  "_format": "hh-sol-artifact-1",
  "contractName": "MenthaPoolBase",
  "sourceName": "contracts/MenthaPoolBase.sol",
  "abi": [
    {
      "anonymous": false,
      "inputs": [
        {
          "indexed": true,
          "internalType": "address",
          "name": "owner",
          "type": "address"
        },
        {
          "indexed": true,
          "internalType": "address",
          "name": "spender",
          "type": "address"
        },
        {
          "indexed": false,
          "internalType": "uint256",
          "name": "value",
          "type": "uint256"
        }
      ],
      "name": "Approval",
      "type": "event"
    },
    {
      "anonymous": false,
      "inputs": [
        {
          "indexed": true,
          "internalType": "address",
          "name": "previousOwner",
          "type": "address"
        },
        {
          "indexed": true,
          "internalType": "address",
          "name": "newOwner",
          "type": "address"
        }
      ],
      "name": "OwnershipTransferred",
      "type": "event"
    },
    {
      "anonymous": false,
      "inputs": [
        {
          "indexed": false,
          "internalType": "address",
          "name": "account",
          "type": "address"
        }
      ],
      "name": "Paused",
      "type": "event"
    },
    {
      "anonymous": false,
      "inputs": [
        {
          "indexed": true,
          "internalType": "address",
          "name": "from",
          "type": "address"
        },
        {
          "indexed": true,
          "internalType": "address",
          "name": "to",
          "type": "address"
        },
        {
          "indexed": false,
          "internalType": "uint256",
          "name": "value",
          "type": "uint256"
        }
      ],
      "name": "Transfer",
      "type": "event"
    },
    {
      "anonymous": false,
      "inputs": [
        {
          "indexed": false,
          "internalType": "address",
          "name": "account",
          "type": "address"
        }
      ],
      "name": "Unpaused",
      "type": "event"
    },
    {
      "inputs": [],
      "name": "TOKEN_NAME_SUFFIX",
      "outputs": [
        {
          "internalType": "string",
          "name": "",
          "type": "string"
        }
      ],
      "stateMutability": "view",
      "type": "function"
    },
    {
      "inputs": [],
      "name": "TOKEN_SYMBOL_PREFIX",
      "outputs": [
        {
          "internalType": "string",
          "name": "",
          "type": "string"
        }
      ],
      "stateMutability": "view",
      "type": "function"
    },
    {
      "inputs": [
        {
          "internalType": "address",
          "name": "owner",
          "type": "address"
        },
        {
          "internalType": "address",
          "name": "spender",
          "type": "address"
        }
      ],
      "name": "allowance",
      "outputs": [
        {
          "internalType": "uint256",
          "name": "",
          "type": "uint256"
        }
      ],
      "stateMutability": "view",
      "type": "function"
    },
    {
      "inputs": [
        {
          "internalType": "address",
          "name": "spender",
          "type": "address"
        },
        {
          "internalType": "uint256",
          "name": "amount",
          "type": "uint256"
        }
      ],
      "name": "approve",
      "outputs": [
        {
          "internalType": "bool",
          "name": "",
          "type": "bool"
        }
      ],
      "stateMutability": "nonpayable",
      "type": "function"
    },
    {
      "inputs": [
        {
          "internalType": "address",
          "name": "account",
          "type": "address"
        }
      ],
      "name": "balanceOf",
      "outputs": [
        {
          "internalType": "uint256",
          "name": "",
          "type": "uint256"
        }
      ],
      "stateMutability": "view",
      "type": "function"
    },
    {
      "inputs": [],
      "name": "decimals",
      "outputs": [
        {
          "internalType": "uint8",
          "name": "",
          "type": "uint8"
        }
      ],
      "stateMutability": "view",
      "type": "function"
    },
    {
      "inputs": [
        {
          "internalType": "address",
          "name": "spender",
          "type": "address"
        },
        {
          "internalType": "uint256",
          "name": "subtractedValue",
          "type": "uint256"
        }
      ],
      "name": "decreaseAllowance",
      "outputs": [
        {
          "internalType": "bool",
          "name": "",
          "type": "bool"
        }
      ],
      "stateMutability": "nonpayable",
      "type": "function"
    },
    {
      "inputs": [
        {
          "internalType": "address",
          "name": "spender",
          "type": "address"
        },
        {
          "internalType": "uint256",
          "name": "addedValue",
          "type": "uint256"
        }
      ],
      "name": "increaseAllowance",
      "outputs": [
        {
          "internalType": "bool",
          "name": "",
          "type": "bool"
        }
      ],
      "stateMutability": "nonpayable",
      "type": "function"
    },
    {
      "inputs": [
        {
          "internalType": "string",
          "name": "_symbol",
          "type": "string"
        }
      ],
      "name": "initialize",
      "outputs": [],
      "stateMutability": "nonpayable",
      "type": "function"
    },
    {
      "inputs": [],
      "name": "name",
      "outputs": [
        {
          "internalType": "string",
          "name": "",
          "type": "string"
        }
      ],
      "stateMutability": "view",
      "type": "function"
    },
    {
      "inputs": [],
      "name": "numberOfTickets",
      "outputs": [
        {
          "internalType": "uint256",
          "name": "",
          "type": "uint256"
        }
      ],
      "stateMutability": "view",
      "type": "function"
    },
    {
      "inputs": [],
      "name": "owner",
      "outputs": [
        {
          "internalType": "address",
          "name": "",
          "type": "address"
        }
      ],
      "stateMutability": "view",
      "type": "function"
    },
    {
      "inputs": [],
      "name": "paused",
      "outputs": [
        {
          "internalType": "bool",
          "name": "",
          "type": "bool"
        }
      ],
      "stateMutability": "view",
      "type": "function"
    },
    {
      "inputs": [],
      "name": "renounceOwnership",
      "outputs": [],
      "stateMutability": "nonpayable",
      "type": "function"
    },
    {
      "inputs": [],
      "name": "symbol",
      "outputs": [
        {
          "internalType": "string",
          "name": "",
          "type": "string"
        }
      ],
      "stateMutability": "view",
      "type": "function"
    },
    {
      "inputs": [
        {
          "internalType": "address",
          "name": "_addr",
          "type": "address"
        }
      ],
      "name": "ticketsOf",
      "outputs": [
        {
          "internalType": "uint256",
          "name": "",
          "type": "uint256"
        }
      ],
      "stateMutability": "view",
      "type": "function"
    },
    {
      "inputs": [],
      "name": "totalSupply",
      "outputs": [
        {
          "internalType": "uint256",
          "name": "",
          "type": "uint256"
        }
      ],
      "stateMutability": "view",
      "type": "function"
    },
    {
      "inputs": [
        {
          "internalType": "address",
          "name": "recipient",
          "type": "address"
        },
        {
          "internalType": "uint256",
          "name": "amount",
          "type": "uint256"
        }
      ],
      "name": "transfer",
      "outputs": [
        {
          "internalType": "bool",
          "name": "",
          "type": "bool"
        }
      ],
      "stateMutability": "nonpayable",
      "type": "function"
    },
    {
      "inputs": [
        {
          "internalType": "address",
          "name": "sender",
          "type": "address"
        },
        {
          "internalType": "address",
          "name": "recipient",
          "type": "address"
        },
        {
          "internalType": "uint256",
          "name": "amount",
          "type": "uint256"
        }
      ],
      "name": "transferFrom",
      "outputs": [
        {
          "internalType": "bool",
          "name": "",
          "type": "bool"
        }
      ],
      "stateMutability": "nonpayable",
      "type": "function"
    },
    {
      "inputs": [
        {
          "internalType": "address",
          "name": "newOwner",
          "type": "address"
        }
      ],
      "name": "transferOwnership",
      "outputs": [],
      "stateMutability": "nonpayable",
      "type": "function"
    }
  ],
  "bytecode": "0x608060405234801561001057600080fd5b50611492806100206000396000f3fe608060405234801561001057600080fd5b506004361061012c5760003560e01c80635c975abb116100ad578063a457c2d711610071578063a457c2d71461022c578063a9059cbb1461023f578063dd62ed3e14610252578063f2fde38b14610265578063f62d1888146102785761012c565b80635c975abb146101ea57806370a08231146101f2578063715018a6146102055780638da5cb5b1461020f57806395d89b41146102245761012c565b8063313ce567116100f4578063313ce5671461019f57806331657926146101b457806339509351146101c757806345745c10146101da578063557323c7146101e25761012c565b806306fdde0314610131578063095ea7b31461014f57806318160ddd1461016f57806323b872dd146101845780632940e82814610197575b600080fd5b61013961028b565b60405161014691906110c7565b60405180910390f35b61016261015d366004610f5f565b61031d565b60405161014691906110bc565b61017761033a565b60405161014691906113a4565b610162610192366004610f24565b610340565b6101396103d9565b6101a76103f8565b60405161014691906113ad565b6101776101c2366004610ed1565b6103fd565b6101626101d5366004610f5f565b61041c565b610177610470565b610139610476565b6101626104a1565b610177610200366004610ed1565b6104aa565b61020d6104c5565b005b610217610510565b60405161014691906110a8565b61013961051f565b61016261023a366004610f5f565b61052e565b61016261024d366004610f5f565b6105a7565b610177610260366004610ef2565b6105bb565b61020d610273366004610ed1565b6105e6565b61020d610286366004610f88565b610657565b60606036805461029a9061140b565b80601f01602080910402602001604051908101604052809291908181526020018280546102c69061140b565b80156103135780601f106102e857610100808354040283529160200191610313565b820191906000526020600020905b8154815290600101906020018083116102f657829003601f168201915b5050505050905090565b600061033161032a610790565b8484610794565b50600192915050565b60355490565b600061034d848484610848565b6001600160a01b03841660009081526034602052604081208161036e610790565b6001600160a01b03166001600160a01b03168152602001908152602001600020549050828110156103ba5760405162461bcd60e51b81526004016103b190611259565b60405180910390fd5b6103ce856103c6610790565b858403610794565b506001949350505050565b604051806040016040528060038152602001620dae8d60eb1b81525081565b601290565b6001600160a01b038116600090815260fb60205260409020545b919050565b6000610331610429610790565b848460346000610437610790565b6001600160a01b03908116825260208083019390935260409182016000908120918b168152925290205461046b91906113bb565b610794565b60fd5481565b6040518060400160405280600f81526020016e26281026b2b73a3430902a37b5b2b760891b81525081565b60c95460ff1690565b6001600160a01b031660009081526033602052604090205490565b6104cd610790565b6001600160a01b03166104de610510565b6001600160a01b0316146105045760405162461bcd60e51b81526004016103b1906112a1565b61050e6000610972565b565b6065546001600160a01b031690565b60606037805461029a9061140b565b6000806034600061053d610790565b6001600160a01b03908116825260208083019390935260409182016000908120918816815292529020549050828110156105895760405162461bcd60e51b81526004016103b19061135f565b61059d610594610790565b85858403610794565b5060019392505050565b60006103316105b4610790565b8484610848565b6001600160a01b03918216600090815260346020908152604080832093909416825291909152205490565b6105ee610790565b6001600160a01b03166105ff610510565b6001600160a01b0316146106255760405162461bcd60e51b81526004016103b1906112a1565b6001600160a01b03811661064b5760405162461bcd60e51b81526004016103b19061113d565b61065481610972565b50565b600054610100900460ff1680610670575060005460ff16155b61068c5760405162461bcd60e51b81526004016103b19061120b565b600054610100900460ff161580156106b7576000805460ff1961ff0019909116610100171660011790555b6106bf6109c4565b6106c7610a48565b6106cf610ab0565b61077a604051806040016040528060038152602001620dae8d60eb1b815250836040518060400160405280600f81526020016e26281026b2b73a3430902a37b5b2b760891b81525060405160200161072993929190611058565b604051602081830303815290604052604051806040016040528060038152602001620dae8d60eb1b81525084604051602001610766929190611029565b604051602081830303815290604052610b20565b801561078c576000805461ff00191690555b5050565b3390565b6001600160a01b0383166107ba5760405162461bcd60e51b81526004016103b19061131b565b6001600160a01b0382166107e05760405162461bcd60e51b81526004016103b190611183565b6001600160a01b0380841660008181526034602090815260408083209487168084529490915290819020849055517f8c5be1e5ebec7d5bd14f71427d1e84f3dd0314c0f7b2291e5b200ac8c7c3b9259061083b9085906113a4565b60405180910390a3505050565b6001600160a01b03831661086e5760405162461bcd60e51b81526004016103b1906112d6565b6001600160a01b0382166108945760405162461bcd60e51b81526004016103b1906110fa565b61089f838383610ba4565b6001600160a01b038316600090815260336020526040902054818110156108d85760405162461bcd60e51b81526004016103b1906111c5565b6001600160a01b0380851660009081526033602052604080822085850390559185168152908120805484929061090f9084906113bb565b92505081905550826001600160a01b0316846001600160a01b03167fddf252ad1be2c89b69c2b068fc378daa952ba7f163c4a11628f55a4df523b3ef8460405161095991906113a4565b60405180910390a361096c848484610ba4565b50505050565b606580546001600160a01b038381166001600160a01b0319831681179093556040519116919082907f8be0079c531659141344cd1fd0a4f28419497f9722a3daafe3b4186f6b6457e090600090a35050565b600054610100900460ff16806109dd575060005460ff16155b6109f95760405162461bcd60e51b81526004016103b19061120b565b600054610100900460ff16158015610a24576000805460ff1961ff0019909116610100171660011790555b610a2c610ba9565b610a34610c1c565b8015610654576000805461ff001916905550565b600054610100900460ff1680610a61575060005460ff16155b610a7d5760405162461bcd60e51b81526004016103b19061120b565b600054610100900460ff16158015610aa8576000805460ff1961ff0019909116610100171660011790555b610a34610c8c565b600054610100900460ff1680610ac9575060005460ff16155b610ae55760405162461bcd60e51b81526004016103b19061120b565b600054610100900460ff16158015610b10576000805460ff1961ff0019909116610100171660011790555b610b18610ba9565b610a34610d05565b600054610100900460ff1680610b39575060005460ff16155b610b555760405162461bcd60e51b81526004016103b19061120b565b600054610100900460ff16158015610b80576000805460ff1961ff0019909116610100171660011790555b610b88610ba9565b610b928383610d83565b8015610ba4576000805461ff00191690555b505050565b600054610100900460ff1680610bc2575060005460ff16155b610bde5760405162461bcd60e51b81526004016103b19061120b565b600054610100900460ff16158015610a34576000805460ff1961ff0019909116610100171660011790558015610654576000805461ff001916905550565b600054610100900460ff1680610c35575060005460ff16155b610c515760405162461bcd60e51b81526004016103b19061120b565b600054610100900460ff16158015610c7c576000805460ff1961ff0019909116610100171660011790555b610a34610c87610790565b610972565b600054610100900460ff1680610ca5575060005460ff16155b610cc15760405162461bcd60e51b81526004016103b19061120b565b600054610100900460ff16158015610cec576000805460ff1961ff0019909116610100171660011790555b60016097558015610654576000805461ff001916905550565b600054610100900460ff1680610d1e575060005460ff16155b610d3a5760405162461bcd60e51b81526004016103b19061120b565b600054610100900460ff16158015610d65576000805460ff1961ff0019909116610100171660011790555b60c9805460ff191690558015610654576000805461ff001916905550565b600054610100900460ff1680610d9c575060005460ff16155b610db85760405162461bcd60e51b81526004016103b19061120b565b600054610100900460ff16158015610de3576000805460ff1961ff0019909116610100171660011790555b8251610df6906036906020860190610e21565b508151610e0a906037906020850190610e21565b508015610ba4576000805461ff0019169055505050565b828054610e2d9061140b565b90600052602060002090601f016020900481019282610e4f5760008555610e95565b82601f10610e6857805160ff1916838001178555610e95565b82800160010185558215610e95579182015b82811115610e95578251825591602001919060010190610e7a565b50610ea1929150610ea5565b5090565b5b80821115610ea15760008155600101610ea6565b80356001600160a01b038116811461041757600080fd5b600060208284031215610ee2578081fd5b610eeb82610eba565b9392505050565b60008060408385031215610f04578081fd5b610f0d83610eba565b9150610f1b60208401610eba565b90509250929050565b600080600060608486031215610f38578081fd5b610f4184610eba565b9250610f4f60208501610eba565b9150604084013590509250925092565b60008060408385031215610f71578182fd5b610f7a83610eba565b946020939093013593505050565b60006020808385031215610f9a578182fd5b823567ffffffffffffffff80821115610fb1578384fd5b818501915085601f830112610fc4578384fd5b813581811115610fd657610fd6611446565b604051601f8201601f1916810185018381118282101715610ff957610ff9611446565b604052818152838201850188101561100f578586fd5b818585018683013790810190930193909352509392505050565b6000835161103b8184602088016113df565b83519083019061104f8183602088016113df565b01949350505050565b6000845161106a8184602089016113df565b84519083019061107e8183602089016113df565b600160fd1b9101908152835161109b8160018401602088016113df565b0160010195945050505050565b6001600160a01b0391909116815260200190565b901515815260200190565b60006020825282518060208401526110e68160408501602087016113df565b601f01601f19169190910160400192915050565b60208082526023908201527f45524332303a207472616e7366657220746f20746865207a65726f206164647260408201526265737360e81b606082015260800190565b60208082526026908201527f4f776e61626c653a206e6577206f776e657220697320746865207a65726f206160408201526564647265737360d01b606082015260800190565b60208082526022908201527f45524332303a20617070726f766520746f20746865207a65726f206164647265604082015261737360f01b606082015260800190565b60208082526026908201527f45524332303a207472616e7366657220616d6f756e7420657863656564732062604082015265616c616e636560d01b606082015260800190565b6020808252602e908201527f496e697469616c697a61626c653a20636f6e747261637420697320616c72656160408201526d191e481a5b9a5d1a585b1a5e995960921b606082015260800190565b60208082526028908201527f45524332303a207472616e7366657220616d6f756e74206578636565647320616040820152676c6c6f77616e636560c01b606082015260800190565b6020808252818101527f4f776e61626c653a2063616c6c6572206973206e6f7420746865206f776e6572604082015260600190565b60208082526025908201527f45524332303a207472616e736665722066726f6d20746865207a65726f206164604082015264647265737360d81b606082015260800190565b60208082526024908201527f45524332303a20617070726f76652066726f6d20746865207a65726f206164646040820152637265737360e01b606082015260800190565b60208082526025908201527f45524332303a2064656372656173656420616c6c6f77616e63652062656c6f77604082015264207a65726f60d81b606082015260800190565b90815260200190565b60ff91909116815260200190565b600082198211156113da57634e487b7160e01b81526011600452602481fd5b500190565b60005b838110156113fa5781810151838201526020016113e2565b8381111561096c5750506000910152565b60028104600182168061141f57607f821691505b6020821081141561144057634e487b7160e01b600052602260045260246000fd5b50919050565b634e487b7160e01b600052604160045260246000fdfea2646970667358221220805141cfc8bb0d466fc430362d1a50cfdc1337ad37a135c3329204e1ac14871164736f6c63430008000033",
  "linkReferences": {},
  "deployedLinkReferences": {}
}