{
  "_format": "hh-sol-artifact-1",
  "contractName": "MenthaPoolBase",
  "sourceName": "contracts/MenthaPoolBase.sol",
  "abi": [
    {
      "anonymous": false,
      "inputs": [
        {
          "indexed": true,
          "internalType": "address",
          "name": "owner",
          "type": "address"
        },
        {
          "indexed": true,
          "internalType": "address",
          "name": "spender",
          "type": "address"
        },
        {
          "indexed": false,
          "internalType": "uint256",
          "name": "value",
          "type": "uint256"
        }
      ],
      "name": "Approval",
      "type": "event"
    },
    {
      "anonymous": false,
      "inputs": [
        {
          "indexed": false,
          "internalType": "uint256",
          "name": "nftId",
          "type": "uint256"
        },
        {
          "indexed": true,
          "internalType": "address",
          "name": "nftAddress",
          "type": "address"
        },
        {
          "indexed": false,
          "internalType": "uint256",
          "name": "nftIndex",
          "type": "uint256"
        },
        {
          "indexed": true,
          "internalType": "address",
          "name": "creator",
          "type": "address"
        }
      ],
      "name": "NFTAdded",
      "type": "event"
    },
    {
      "anonymous": false,
      "inputs": [
        {
          "indexed": true,
          "internalType": "address",
          "name": "previousOwner",
          "type": "address"
        },
        {
          "indexed": true,
          "internalType": "address",
          "name": "newOwner",
          "type": "address"
        }
      ],
      "name": "OwnershipTransferred",
      "type": "event"
    },
    {
      "anonymous": false,
      "inputs": [
        {
          "indexed": false,
          "internalType": "address",
          "name": "account",
          "type": "address"
        }
      ],
      "name": "Paused",
      "type": "event"
    },
    {
      "anonymous": false,
      "inputs": [
        {
          "indexed": true,
          "internalType": "address",
          "name": "from",
          "type": "address"
        },
        {
          "indexed": true,
          "internalType": "address",
          "name": "to",
          "type": "address"
        },
        {
          "indexed": false,
          "internalType": "uint256",
          "name": "value",
          "type": "uint256"
        }
      ],
      "name": "Transfer",
      "type": "event"
    },
    {
      "anonymous": false,
      "inputs": [
        {
          "indexed": false,
          "internalType": "address",
          "name": "account",
          "type": "address"
        }
      ],
      "name": "Unpaused",
      "type": "event"
    },
    {
      "inputs": [],
      "name": "TOKEN_NAME_SUFFIX",
      "outputs": [
        {
          "internalType": "string",
          "name": "",
          "type": "string"
        }
      ],
      "stateMutability": "view",
      "type": "function"
    },
    {
      "inputs": [],
      "name": "TOKEN_SYMBOL_PREFIX",
      "outputs": [
        {
          "internalType": "string",
          "name": "",
          "type": "string"
        }
      ],
      "stateMutability": "view",
      "type": "function"
    },
    {
      "inputs": [
        {
          "internalType": "address",
          "name": "owner",
          "type": "address"
        },
        {
          "internalType": "address",
          "name": "spender",
          "type": "address"
        }
      ],
      "name": "allowance",
      "outputs": [
        {
          "internalType": "uint256",
          "name": "",
          "type": "uint256"
        }
      ],
      "stateMutability": "view",
      "type": "function"
    },
    {
      "inputs": [
        {
          "internalType": "address",
          "name": "_nftAddress",
          "type": "address"
        },
        {
          "internalType": "uint256",
          "name": "_nftIndex",
          "type": "uint256"
        }
      ],
      "name": "appendNFT",
      "outputs": [],
      "stateMutability": "nonpayable",
      "type": "function"
    },
    {
      "inputs": [
        {
          "internalType": "address",
          "name": "spender",
          "type": "address"
        },
        {
          "internalType": "uint256",
          "name": "amount",
          "type": "uint256"
        }
      ],
      "name": "approve",
      "outputs": [
        {
          "internalType": "bool",
          "name": "",
          "type": "bool"
        }
      ],
      "stateMutability": "nonpayable",
      "type": "function"
    },
    {
      "inputs": [
        {
          "internalType": "address",
          "name": "account",
          "type": "address"
        }
      ],
      "name": "balanceOf",
      "outputs": [
        {
          "internalType": "uint256",
          "name": "",
          "type": "uint256"
        }
      ],
      "stateMutability": "view",
      "type": "function"
    },
    {
      "inputs": [],
      "name": "decimals",
      "outputs": [
        {
          "internalType": "uint8",
          "name": "",
          "type": "uint8"
        }
      ],
      "stateMutability": "view",
      "type": "function"
    },
    {
      "inputs": [
        {
          "internalType": "address",
          "name": "spender",
          "type": "address"
        },
        {
          "internalType": "uint256",
          "name": "subtractedValue",
          "type": "uint256"
        }
      ],
      "name": "decreaseAllowance",
      "outputs": [
        {
          "internalType": "bool",
          "name": "",
          "type": "bool"
        }
      ],
      "stateMutability": "nonpayable",
      "type": "function"
    },
    {
      "inputs": [
        {
          "internalType": "address",
          "name": "spender",
          "type": "address"
        },
        {
          "internalType": "uint256",
          "name": "addedValue",
          "type": "uint256"
        }
      ],
      "name": "increaseAllowance",
      "outputs": [
        {
          "internalType": "bool",
          "name": "",
          "type": "bool"
        }
      ],
      "stateMutability": "nonpayable",
      "type": "function"
    },
    {
      "inputs": [
        {
          "internalType": "string",
          "name": "_symbol",
          "type": "string"
        }
      ],
      "name": "initialize",
      "outputs": [],
      "stateMutability": "nonpayable",
      "type": "function"
    },
    {
      "inputs": [],
      "name": "name",
      "outputs": [
        {
          "internalType": "string",
          "name": "",
          "type": "string"
        }
      ],
      "stateMutability": "view",
      "type": "function"
    },
    {
      "inputs": [
        {
          "internalType": "uint256",
          "name": "",
          "type": "uint256"
        }
      ],
      "name": "nfts",
      "outputs": [
        {
          "internalType": "address",
          "name": "addr",
          "type": "address"
        },
        {
          "internalType": "uint256",
          "name": "index",
          "type": "uint256"
        },
        {
          "internalType": "address payable",
          "name": "creator",
          "type": "address"
        }
      ],
      "stateMutability": "view",
      "type": "function"
    },
    {
      "inputs": [],
      "name": "numberOfNFT",
      "outputs": [
        {
          "internalType": "uint256",
          "name": "",
          "type": "uint256"
        }
      ],
      "stateMutability": "view",
      "type": "function"
    },
    {
      "inputs": [],
      "name": "numberOfTickets",
      "outputs": [
        {
          "internalType": "uint256",
          "name": "",
          "type": "uint256"
        }
      ],
      "stateMutability": "view",
      "type": "function"
    },
    {
      "inputs": [],
      "name": "owner",
      "outputs": [
        {
          "internalType": "address",
          "name": "",
          "type": "address"
        }
      ],
      "stateMutability": "view",
      "type": "function"
    },
    {
      "inputs": [],
      "name": "paused",
      "outputs": [
        {
          "internalType": "bool",
          "name": "",
          "type": "bool"
        }
      ],
      "stateMutability": "view",
      "type": "function"
    },
    {
      "inputs": [],
      "name": "renounceOwnership",
      "outputs": [],
      "stateMutability": "nonpayable",
      "type": "function"
    },
    {
      "inputs": [],
      "name": "symbol",
      "outputs": [
        {
          "internalType": "string",
          "name": "",
          "type": "string"
        }
      ],
      "stateMutability": "view",
      "type": "function"
    },
    {
      "inputs": [
        {
          "internalType": "address",
          "name": "_addr",
          "type": "address"
        }
      ],
      "name": "ticketsOf",
      "outputs": [
        {
          "internalType": "uint256",
          "name": "",
          "type": "uint256"
        }
      ],
      "stateMutability": "view",
      "type": "function"
    },
    {
      "inputs": [],
      "name": "totalSupply",
      "outputs": [
        {
          "internalType": "uint256",
          "name": "",
          "type": "uint256"
        }
      ],
      "stateMutability": "view",
      "type": "function"
    },
    {
      "inputs": [
        {
          "internalType": "address",
          "name": "recipient",
          "type": "address"
        },
        {
          "internalType": "uint256",
          "name": "amount",
          "type": "uint256"
        }
      ],
      "name": "transfer",
      "outputs": [
        {
          "internalType": "bool",
          "name": "",
          "type": "bool"
        }
      ],
      "stateMutability": "nonpayable",
      "type": "function"
    },
    {
      "inputs": [
        {
          "internalType": "address",
          "name": "sender",
          "type": "address"
        },
        {
          "internalType": "address",
          "name": "recipient",
          "type": "address"
        },
        {
          "internalType": "uint256",
          "name": "amount",
          "type": "uint256"
        }
      ],
      "name": "transferFrom",
      "outputs": [
        {
          "internalType": "bool",
          "name": "",
          "type": "bool"
        }
      ],
      "stateMutability": "nonpayable",
      "type": "function"
    },
    {
      "inputs": [],
      "name": "transferNFT",
      "outputs": [],
      "stateMutability": "nonpayable",
      "type": "function"
    },
    {
      "inputs": [
        {
          "internalType": "address",
          "name": "newOwner",
          "type": "address"
        }
      ],
      "name": "transferOwnership",
      "outputs": [],
      "stateMutability": "nonpayable",
      "type": "function"
    }
  ],
  "bytecode": "0x608060405234801561001057600080fd5b50611a3f806100206000396000f3fe608060405234801561001057600080fd5b50600436106101585760003560e01c8063557323c7116100c3578063a457c2d71161007c578063a457c2d714610295578063a4fa3734146102a8578063a9059cbb146102b0578063dd62ed3e146102c3578063f2fde38b146102d6578063f62d1888146102e957610158565b8063557323c71461024d5780635c975abb1461025557806370a082311461025d578063715018a6146102705780638da5cb5b1461027857806395d89b411461028d57610158565b8063313ce56711610115578063313ce567146101ed57806331657926146102025780633748a5c214610215578063395093511461021d57806345745c10146102305780634616b6fb1461023857610158565b806306fdde031461015d578063095ea7b31461017b57806318160ddd1461019b57806323b872dd146101b0578063265aa621146101c35780632940e828146101e5575b600080fd5b6101656102fc565b604051610172919061159f565b60405180910390f35b61018e6101893660046113c8565b61038e565b6040516101729190611594565b6101a36103ab565b60405161017291906118fb565b61018e6101be366004611388565b6103b1565b6101d66101d1366004611494565b61044a565b60405161017293929190611571565b610165610488565b6101f56104a7565b6040516101729190611904565b6101a3610210366004611311565b6104ac565b6101a36104c7565b61018e61022b3660046113c8565b6104de565b6101a3610532565b61024b6102463660046113c8565b610538565b005b61016561071f565b61018e61074a565b6101a361026b366004611311565b610753565b61024b61076e565b6102806107b9565b6040516101729190611539565b6101656107c8565b61018e6102a33660046113c8565b6107d7565b61024b610850565b61018e6102be3660046113c8565b61098f565b6101a36102d1366004611350565b6109a3565b61024b6102e4366004611311565b6109ce565b61024b6102f73660046113f3565b610a3f565b60606036805461030b9061196d565b80601f01602080910402602001604051908101604052809291908181526020018280546103379061196d565b80156103845780601f1061035957610100808354040283529160200191610384565b820191906000526020600020905b81548152906001019060200180831161036757829003601f168201915b5050505050905090565b60006103a261039b610b78565b8484610b7c565b50600192915050565b60355490565b60006103be848484610c23565b6001600160a01b0384166000908152603460205260408120816103df610b78565b6001600160a01b03166001600160a01b031681526020019081526020016000205490508281101561042b5760405162461bcd60e51b815260040161042290611731565b60405180910390fd5b61043f85610437610b78565b858403610b7c565b506001949350505050565b60fe818154811061045a57600080fd5b60009182526020909120600390910201805460018201546002909201546001600160a01b0391821693501683565b604051806040016040528060038152602001620dae8d60eb1b81525081565b601290565b6001600160a01b0316600090815260fb602052604090205490565b60ff5460fe546000916104d99161192a565b905090565b60006103a26104eb610b78565b8484603460006104f9610b78565b6001600160a01b03908116825260208083019390935260409182016000908120918b168152925290205461052d9190611912565b610b7c565b60fd5481565b6001600160a01b03821661055e5760405162461bcd60e51b81526004016104229061187f565b60405163020604bf60e21b815230906001600160a01b0384169063081812fc9061058c9085906004016118fb565b60206040518083038186803b1580156105a457600080fd5b505afa1580156105b8573d6000803e3d6000fd5b505050506040513d601f19601f820116820180604052508101906105dc9190611334565b6001600160a01b0316146106025760405162461bcd60e51b815260040161042290611837565b604080516060810182526001600160a01b03808516808352602083018581523394840185815260fe8054600181810183556000839052875160039092027f54075df80ec1ae6ac9100e1fd0ebf3246c17f5c933137af392011f4c5f61513a810180549389166001600160a01b031994851617905594517f54075df80ec1ae6ac9100e1fd0ebf3246c17f5c933137af392011f4c5f61513b86015592517f54075df80ec1ae6ac9100e1fd0ebf3246c17f5c933137af392011f4c5f61513c9094018054949096169316929092179093555492939290917fa9523996ab8260619361ea56171ab851f63da5afbd7f6436d398a65a077c0e6b91610703919061192a565b8560405161071292919061152b565b60405180910390a3505050565b6040518060400160405280600f81526020016e26281026b2b73a3430902a37b5b2b760891b81525081565b60c95460ff1690565b6001600160a01b031660009081526033602052604090205490565b610776610b78565b6001600160a01b03166107876107b9565b6001600160a01b0316146107ad5760405162461bcd60e51b815260040161042290611779565b6107b76000610d4d565b565b6065546001600160a01b031690565b60606037805461030b9061196d565b600080603460006107e6610b78565b6001600160a01b03908116825260208083019390935260409182016000908120918816815292529020549050828110156108325760405162461bcd60e51b8152600401610422906118b6565b61084661083d610b78565b85858403610b7c565b5060019392505050565b610858610b78565b6001600160a01b03166108696107b9565b6001600160a01b03161461088f5760405162461bcd60e51b815260040161042290611779565b6000610899610d9f565b9050600060fe60ff54815481106108c057634e487b7160e01b600052603260045260246000fd5b6000918252602080832060408051606081018252600390940290910180546001600160a01b03908116855260018083015494860194909452600290910154169083015260ff805492945090929091610919908490611912565b90915550508051604080830151602084015191516323b872dd60e01b81526001600160a01b03909316926323b872dd92610959929187919060040161154d565b600060405180830381600087803b15801561097357600080fd5b505af1158015610987573d6000803e3d6000fd5b505050505050565b60006103a261099c610b78565b8484610c23565b6001600160a01b03918216600090815260346020908152604080832093909416825291909152205490565b6109d6610b78565b6001600160a01b03166109e76107b9565b6001600160a01b031614610a0d5760405162461bcd60e51b815260040161042290611779565b6001600160a01b038116610a335760405162461bcd60e51b815260040161042290611615565b610a3c81610d4d565b50565b600054610100900460ff1680610a58575060005460ff16155b610a745760405162461bcd60e51b8152600401610422906116e3565b600054610100900460ff16158015610a9f576000805460ff1961ff0019909116610100171660011790555b610aa7610e1b565b610aaf610e9f565b610ab7610f07565b610b62604051806040016040528060038152602001620dae8d60eb1b815250836040518060400160405280600f81526020016e26281026b2b73a3430902a37b5b2b760891b815250604051602001610b11939291906114db565b604051602081830303815290604052604051806040016040528060038152602001620dae8d60eb1b81525084604051602001610b4e9291906114ac565b604051602081830303815290604052610f77565b8015610b74576000805461ff00191690555b5050565b3390565b6001600160a01b038316610ba25760405162461bcd60e51b8152600401610422906117f3565b6001600160a01b038216610bc85760405162461bcd60e51b81526004016104229061165b565b6001600160a01b0380841660008181526034602090815260408083209487168084529490915290819020849055517f8c5be1e5ebec7d5bd14f71427d1e84f3dd0314c0f7b2291e5b200ac8c7c3b925906107129085906118fb565b6001600160a01b038316610c495760405162461bcd60e51b8152600401610422906117ae565b6001600160a01b038216610c6f5760405162461bcd60e51b8152600401610422906115d2565b610c7a838383610ffb565b6001600160a01b03831660009081526033602052604090205481811015610cb35760405162461bcd60e51b81526004016104229061169d565b6001600160a01b03808516600090815260336020526040808220858503905591851681529081208054849290610cea908490611912565b92505081905550826001600160a01b0316846001600160a01b03167fddf252ad1be2c89b69c2b068fc378daa952ba7f163c4a11628f55a4df523b3ef84604051610d3491906118fb565b60405180910390a3610d47848484610ffb565b50505050565b606580546001600160a01b038381166001600160a01b0319831681179093556040519116919082907f8be0079c531659141344cd1fd0a4f28419497f9722a3daafe3b4186f6b6457e090600090a35050565b60fc546040516000918291610dba904290449060200161152b565b6040516020818303038152906040528051906020012060001c610ddd91906119a8565b905060fc8181548110610e0057634e487b7160e01b600052603260045260246000fd5b6000918252602090912001546001600160a01b031691505090565b600054610100900460ff1680610e34575060005460ff16155b610e505760405162461bcd60e51b8152600401610422906116e3565b600054610100900460ff16158015610e7b576000805460ff1961ff0019909116610100171660011790555b610e83611000565b610e8b611073565b8015610a3c576000805461ff001916905550565b600054610100900460ff1680610eb8575060005460ff16155b610ed45760405162461bcd60e51b8152600401610422906116e3565b600054610100900460ff16158015610eff576000805460ff1961ff0019909116610100171660011790555b610e8b6110e3565b600054610100900460ff1680610f20575060005460ff16155b610f3c5760405162461bcd60e51b8152600401610422906116e3565b600054610100900460ff16158015610f67576000805460ff1961ff0019909116610100171660011790555b610f6f611000565b610e8b61115c565b600054610100900460ff1680610f90575060005460ff16155b610fac5760405162461bcd60e51b8152600401610422906116e3565b600054610100900460ff16158015610fd7576000805460ff1961ff0019909116610100171660011790555b610fdf611000565b610fe983836111da565b8015610ffb576000805461ff00191690555b505050565b600054610100900460ff1680611019575060005460ff16155b6110355760405162461bcd60e51b8152600401610422906116e3565b600054610100900460ff16158015610e8b576000805460ff1961ff0019909116610100171660011790558015610a3c576000805461ff001916905550565b600054610100900460ff168061108c575060005460ff16155b6110a85760405162461bcd60e51b8152600401610422906116e3565b600054610100900460ff161580156110d3576000805460ff1961ff0019909116610100171660011790555b610e8b6110de610b78565b610d4d565b600054610100900460ff16806110fc575060005460ff16155b6111185760405162461bcd60e51b8152600401610422906116e3565b600054610100900460ff16158015611143576000805460ff1961ff0019909116610100171660011790555b60016097558015610a3c576000805461ff001916905550565b600054610100900460ff1680611175575060005460ff16155b6111915760405162461bcd60e51b8152600401610422906116e3565b600054610100900460ff161580156111bc576000805460ff1961ff0019909116610100171660011790555b60c9805460ff191690558015610a3c576000805461ff001916905550565b600054610100900460ff16806111f3575060005460ff16155b61120f5760405162461bcd60e51b8152600401610422906116e3565b600054610100900460ff1615801561123a576000805460ff1961ff0019909116610100171660011790555b825161124d906036906020860190611278565b508151611261906037906020850190611278565b508015610ffb576000805461ff0019169055505050565b8280546112849061196d565b90600052602060002090601f0160209004810192826112a657600085556112ec565b82601f106112bf57805160ff19168380011785556112ec565b828001600101855582156112ec579182015b828111156112ec5782518255916020019190600101906112d1565b506112f89291506112fc565b5090565b5b808211156112f857600081556001016112fd565b600060208284031215611322578081fd5b813561132d816119f4565b9392505050565b600060208284031215611345578081fd5b815161132d816119f4565b60008060408385031215611362578081fd5b823561136d816119f4565b9150602083013561137d816119f4565b809150509250929050565b60008060006060848603121561139c578081fd5b83356113a7816119f4565b925060208401356113b7816119f4565b929592945050506040919091013590565b600080604083850312156113da578182fd5b82356113e5816119f4565b946020939093013593505050565b60006020808385031215611405578182fd5b823567ffffffffffffffff8082111561141c578384fd5b818501915085601f83011261142f578384fd5b813581811115611441576114416119de565b604051601f8201601f1916810185018381118282101715611464576114646119de565b604052818152838201850188101561147a578586fd5b818585018683013790810190930193909352509392505050565b6000602082840312156114a5578081fd5b5035919050565b600083516114be818460208801611941565b8351908301906114d2818360208801611941565b01949350505050565b600084516114ed818460208901611941565b845190830190611501818360208901611941565b600160fd1b9101908152835161151e816001840160208801611941565b0160010195945050505050565b918252602082015260400190565b6001600160a01b0391909116815260200190565b6001600160a01b039384168152919092166020820152604081019190915260600190565b6001600160a01b0393841681526020810192909252909116604082015260600190565b901515815260200190565b60006020825282518060208401526115be816040850160208701611941565b601f01601f19169190910160400192915050565b60208082526023908201527f45524332303a207472616e7366657220746f20746865207a65726f206164647260408201526265737360e81b606082015260800190565b60208082526026908201527f4f776e61626c653a206e6577206f776e657220697320746865207a65726f206160408201526564647265737360d01b606082015260800190565b60208082526022908201527f45524332303a20617070726f766520746f20746865207a65726f206164647265604082015261737360f01b606082015260800190565b60208082526026908201527f45524332303a207472616e7366657220616d6f756e7420657863656564732062604082015265616c616e636560d01b606082015260800190565b6020808252602e908201527f496e697469616c697a61626c653a20636f6e747261637420697320616c72656160408201526d191e481a5b9a5d1a585b1a5e995960921b606082015260800190565b60208082526028908201527f45524332303a207472616e7366657220616d6f756e74206578636565647320616040820152676c6c6f77616e636560c01b606082015260800190565b6020808252818101527f4f776e61626c653a2063616c6c6572206973206e6f7420746865206f776e6572604082015260600190565b60208082526025908201527f45524332303a207472616e736665722066726f6d20746865207a65726f206164604082015264647265737360d81b606082015260800190565b60208082526024908201527f45524332303a20617070726f76652066726f6d20746865207a65726f206164646040820152637265737360e01b606082015260800190565b60208082526028908201527f436f6e7472616374206973206e6f7420617070726f76656420746f207472616e6040820152671cd9995c8813919560c21b606082015260800190565b6020808252601b908201527f412076616c696420616464726573732069732072657175697265640000000000604082015260600190565b60208082526025908201527f45524332303a2064656372656173656420616c6c6f77616e63652062656c6f77604082015264207a65726f60d81b606082015260800190565b90815260200190565b60ff91909116815260200190565b60008219821115611925576119256119c8565b500190565b60008282101561193c5761193c6119c8565b500390565b60005b8381101561195c578181015183820152602001611944565b83811115610d475750506000910152565b60028104600182168061198157607f821691505b602082108114156119a257634e487b7160e01b600052602260045260246000fd5b50919050565b6000826119c357634e487b7160e01b81526012600452602481fd5b500690565b634e487b7160e01b600052601160045260246000fd5b634e487b7160e01b600052604160045260246000fd5b6001600160a01b0381168114610a3c57600080fdfea2646970667358221220bdc78bdcc80a87a367962c3202f6a2b3c79e6c859eeddea5085c38ca2079651664736f6c63430008000033",
  "linkReferences": {},
  "deployedLinkReferences": {}
}