{
  "_format": "hh-sol-artifact-1",
  "contractName": "MenthaPoolController",
  "sourceName": "contracts/MenthaPoolController.sol",
  "abi": [
    {
      "anonymous": false,
      "inputs": [
        {
          "indexed": true,
          "internalType": "address",
          "name": "previousOwner",
          "type": "address"
        },
        {
          "indexed": true,
          "internalType": "address",
          "name": "newOwner",
          "type": "address"
        }
      ],
      "name": "OwnershipTransferred",
      "type": "event"
    },
    {
      "anonymous": false,
      "inputs": [
        {
          "indexed": false,
          "internalType": "address",
          "name": "account",
          "type": "address"
        }
      ],
      "name": "Paused",
      "type": "event"
    },
    {
      "anonymous": false,
      "inputs": [
        {
          "indexed": false,
          "internalType": "uint256",
          "name": "poolId",
          "type": "uint256"
        },
        {
          "indexed": true,
          "internalType": "address",
          "name": "creator",
          "type": "address"
        },
        {
          "indexed": false,
          "internalType": "address",
          "name": "poolAddress",
          "type": "address"
        },
        {
          "indexed": false,
          "internalType": "uint256",
          "name": "ticketPrice",
          "type": "uint256"
        },
        {
          "indexed": false,
          "internalType": "uint256",
          "name": "poolType",
          "type": "uint256"
        },
        {
          "indexed": false,
          "internalType": "string",
          "name": "symbol",
          "type": "string"
        }
      ],
      "name": "PoolCreated",
      "type": "event"
    },
    {
      "anonymous": false,
      "inputs": [
        {
          "indexed": false,
          "internalType": "address",
          "name": "account",
          "type": "address"
        }
      ],
      "name": "Unpaused",
      "type": "event"
    },
    {
      "inputs": [
        {
          "internalType": "uint256",
          "name": "_poolTypeId",
          "type": "uint256"
        },
        {
          "internalType": "bytes32",
          "name": "_poolTypeName",
          "type": "bytes32"
        },
        {
          "internalType": "address",
          "name": "_masterPoolAddress",
          "type": "address"
        }
      ],
      "name": "addMasterPool",
      "outputs": [],
      "stateMutability": "nonpayable",
      "type": "function"
    },
    {
      "inputs": [
        {
          "internalType": "uint256",
          "name": "_poolType",
          "type": "uint256"
        },
        {
          "internalType": "string",
          "name": "_symbol",
          "type": "string"
        },
        {
          "internalType": "address",
          "name": "_collateral",
          "type": "address"
        },
        {
          "internalType": "uint256",
          "name": "_ticketPrice",
          "type": "uint256"
        }
      ],
      "name": "createPool",
      "outputs": [],
      "stateMutability": "nonpayable",
      "type": "function"
    },
    {
      "inputs": [],
      "name": "initialize",
      "outputs": [],
      "stateMutability": "nonpayable",
      "type": "function"
    },
    {
      "inputs": [],
      "name": "numberOfPools",
      "outputs": [
        {
          "internalType": "uint256",
          "name": "",
          "type": "uint256"
        }
      ],
      "stateMutability": "view",
      "type": "function"
    },
    {
      "inputs": [],
      "name": "owner",
      "outputs": [
        {
          "internalType": "address",
          "name": "",
          "type": "address"
        }
      ],
      "stateMutability": "view",
      "type": "function"
    },
    {
      "inputs": [],
      "name": "paused",
      "outputs": [
        {
          "internalType": "bool",
          "name": "",
          "type": "bool"
        }
      ],
      "stateMutability": "view",
      "type": "function"
    },
    {
      "inputs": [
        {
          "internalType": "uint256",
          "name": "",
          "type": "uint256"
        }
      ],
      "name": "pools",
      "outputs": [
        {
          "internalType": "contract IMenthaPool",
          "name": "",
          "type": "address"
        }
      ],
      "stateMutability": "view",
      "type": "function"
    },
    {
      "inputs": [],
      "name": "renounceOwnership",
      "outputs": [],
      "stateMutability": "nonpayable",
      "type": "function"
    },
    {
      "inputs": [
        {
          "internalType": "address",
          "name": "newOwner",
          "type": "address"
        }
      ],
      "name": "transferOwnership",
      "outputs": [],
      "stateMutability": "nonpayable",
      "type": "function"
    },
    {
      "inputs": [],
      "name": "wallet",
      "outputs": [
        {
          "internalType": "address payable",
          "name": "",
          "type": "address"
        }
      ],
      "stateMutability": "view",
      "type": "function"
    }
  ],
  "bytecode": "0x608060405234801561001057600080fd5b50610d54806100206000396000f3fe608060405234801561001057600080fd5b506004361061009e5760003560e01c80638da5cb5b116100665780638da5cb5b146100fd578063a54306bd14610105578063ac4afa3814610118578063dedddd951461012b578063f2fde38b1461013e5761009e565b8063521eb273146100a35780635c975abb146100c15780636f682a53146100d6578063715018a6146100eb5780638129fc1c146100f5575b600080fd5b6100ab610151565b6040516100b89190610adb565b60405180910390f35b6100c9610160565b6040516100b89190610aef565b6100de610169565b6040516100b89190610c9e565b6100f361016f565b005b6100f36101c3565b6100ab610278565b6100f36101133660046109cb565b610287565b6100ab61012636600461097f565b610453565b6100f3610139366004610997565b61047d565b6100f361014c36600461095e565b6104f6565b60c9546001600160a01b031681565b60975460ff1690565b60cc5490565b610177610564565b6001600160a01b0316610188610278565b6001600160a01b0316146101b75760405162461bcd60e51b81526004016101ae90610bf1565b60405180910390fd5b6101c16000610568565b565b600054610100900460ff16806101dc575060005460ff16155b6101f85760405162461bcd60e51b81526004016101ae90610ba3565b600054610100900460ff16158015610223576000805460ff1961ff0019909116610100171660011790555b61022b6105ba565b61023361063e565b61023b6106a6565b610243610278565b60c980546001600160a01b0319166001600160a01b03929092169190911790558015610275576000805461ff00191690555b50565b6033546001600160a01b031690565b61028f610564565b6001600160a01b03166102a0610278565b6001600160a01b0316146102c65760405162461bcd60e51b81526004016101ae90610bf1565b6001600160a01b0382166102ec5760405162461bcd60e51b81526004016101ae90610c67565b6000811161030c5760405162461bcd60e51b81526004016101ae90610b6e565b600084815260ca60205260409020546001600160a01b0316806103415760405162461bcd60e51b81526004016101ae90610c26565b600061034c82610716565b60405163e0921f8560e01b81529091506001600160a01b0382169063e0921f859061037f90889088908890600401610afa565b600060405180830381600087803b15801561039957600080fd5b505af11580156103ad573d6000803e3d6000fd5b505060cc80546001808201835560008390527f47197230e1e4b29fc0bd84d7d78966c0925452aff72a2a121538b102457e9ebe90910180546001600160a01b0319166001600160a01b03871617905590543393507f82af8e47d6a90c1d9fd0e192f04c149cb78d1d6078977d6706681a271b57045e925061042e9190610ce5565b83868a8a604051610443959493929190610ca7565b60405180910390a2505050505050565b60cc818154811061046357600080fd5b6000918252602090912001546001600160a01b0316905081565b610485610564565b6001600160a01b0316610496610278565b6001600160a01b0316146104bc5760405162461bcd60e51b81526004016101ae90610bf1565b600092835260cb602090815260408085209390935560ca9052912080546001600160a01b0319166001600160a01b03909216919091179055565b6104fe610564565b6001600160a01b031661050f610278565b6001600160a01b0316146105355760405162461bcd60e51b81526004016101ae90610bf1565b6001600160a01b03811661055b5760405162461bcd60e51b81526004016101ae90610b28565b61027581610568565b3390565b603380546001600160a01b038381166001600160a01b0319831681179093556040519116919082907f8be0079c531659141344cd1fd0a4f28419497f9722a3daafe3b4186f6b6457e090600090a35050565b600054610100900460ff16806105d3575060005460ff16155b6105ef5760405162461bcd60e51b81526004016101ae90610ba3565b600054610100900460ff1615801561061a576000805460ff1961ff0019909116610100171660011790555b610622610768565b61062a6107db565b8015610275576000805461ff001916905550565b600054610100900460ff1680610657575060005460ff16155b6106735760405162461bcd60e51b81526004016101ae90610ba3565b600054610100900460ff1615801561069e576000805460ff1961ff0019909116610100171660011790555b61062a61084b565b600054610100900460ff16806106bf575060005460ff16155b6106db5760405162461bcd60e51b81526004016101ae90610ba3565b600054610100900460ff16158015610706576000805460ff1961ff0019909116610100171660011790555b61070e610768565b61062a6108c4565b6000808260601b9050604051733d602d80600a3d3981f3363d3d373d3d3d363d7360601b81528160148201526e5af43d82803e903d91602b57fd5bf360881b60288201526037816000f0949350505050565b600054610100900460ff1680610781575060005460ff16155b61079d5760405162461bcd60e51b81526004016101ae90610ba3565b600054610100900460ff1615801561062a576000805460ff1961ff0019909116610100171660011790558015610275576000805461ff001916905550565b600054610100900460ff16806107f4575060005460ff16155b6108105760405162461bcd60e51b81526004016101ae90610ba3565b600054610100900460ff1615801561083b576000805460ff1961ff0019909116610100171660011790555b61062a610846610564565b610568565b600054610100900460ff1680610864575060005460ff16155b6108805760405162461bcd60e51b81526004016101ae90610ba3565b600054610100900460ff161580156108ab576000805460ff1961ff0019909116610100171660011790555b60016065558015610275576000805461ff001916905550565b600054610100900460ff16806108dd575060005460ff16155b6108f95760405162461bcd60e51b81526004016101ae90610ba3565b600054610100900460ff16158015610924576000805460ff1961ff0019909116610100171660011790555b6097805460ff191690558015610275576000805461ff001916905550565b80356001600160a01b038116811461095957600080fd5b919050565b60006020828403121561096f578081fd5b61097882610942565b9392505050565b600060208284031215610990578081fd5b5035919050565b6000806000606084860312156109ab578182fd5b83359250602084013591506109c260408501610942565b90509250925092565b600080600080608085870312156109e0578081fd5b8435935060208086013567ffffffffffffffff808211156109ff578384fd5b818801915088601f830112610a12578384fd5b813581811115610a2457610a24610d08565b604051601f8201601f1916810185018381118282101715610a4757610a47610d08565b60405281815283820185018b1015610a5d578586fd5b8185850186830137858583830101528097505050505050610a8060408601610942565b9396929550929360600135925050565b60008151808452815b81811015610ab557602081850181015186830182015201610a99565b81811115610ac65782602083870101525b50601f01601f19169290920160200192915050565b6001600160a01b0391909116815260200190565b901515815260200190565b600060608252610b0d6060830186610a90565b6001600160a01b039490941660208301525060400152919050565b60208082526026908201527f4f776e61626c653a206e6577206f776e657220697320746865207a65726f206160408201526564647265737360d01b606082015260800190565b6020808252818101527f412076616c6964207469636b6574207072696365206973207265717569726564604082015260600190565b6020808252602e908201527f496e697469616c697a61626c653a20636f6e747261637420697320616c72656160408201526d191e481a5b9a5d1a585b1a5e995960921b606082015260800190565b6020808252818101527f4f776e61626c653a2063616c6c6572206973206e6f7420746865206f776e6572604082015260600190565b60208082526021908201527f4d617374657220706f6f6c20636f6e7472616374206e6f74206465706c6f79656040820152601960fa1b606082015260800190565b6020808252601b908201527f412076616c696420616464726573732069732072657175697265640000000000604082015260600190565b90815260200190565b600086825260018060a01b038616602083015284604083015283606083015260a06080830152610cda60a0830184610a90565b979650505050505050565b600082821015610d0357634e487b7160e01b81526011600452602481fd5b500390565b634e487b7160e01b600052604160045260246000fdfea26469706673582212203eddcda0306765c56b06d5b1407e6d44f662ff4774314b95b8dff2e57576f19c64736f6c63430008000033",
  "linkReferences": {},
  "deployedLinkReferences": {}
}