{
  "_format": "hh-sol-artifact-1",
  "contractName": "MenthaPoolController",
  "sourceName": "contracts/MenthaPoolController.sol",
  "abi": [
    {
      "anonymous": false,
      "inputs": [
        {
          "indexed": true,
          "internalType": "address",
          "name": "previousOwner",
          "type": "address"
        },
        {
          "indexed": true,
          "internalType": "address",
          "name": "newOwner",
          "type": "address"
        }
      ],
      "name": "OwnershipTransferred",
      "type": "event"
    },
    {
      "anonymous": false,
      "inputs": [
        {
          "indexed": false,
          "internalType": "address",
          "name": "account",
          "type": "address"
        }
      ],
      "name": "Paused",
      "type": "event"
    },
    {
      "anonymous": false,
      "inputs": [
        {
          "indexed": false,
          "internalType": "address",
          "name": "account",
          "type": "address"
        }
      ],
      "name": "Unpaused",
      "type": "event"
    },
    {
      "inputs": [
        {
          "internalType": "uint256",
          "name": "_poolTypeId",
          "type": "uint256"
        },
        {
          "internalType": "bytes32",
          "name": "_poolTypeName",
          "type": "bytes32"
        },
        {
          "internalType": "address",
          "name": "_masterPoolAddress",
          "type": "address"
        }
      ],
      "name": "addMasterPool",
      "outputs": [],
      "stateMutability": "nonpayable",
      "type": "function"
    },
    {
      "inputs": [
        {
          "internalType": "uint256",
          "name": "_poolType",
          "type": "uint256"
        },
        {
          "internalType": "address",
          "name": "_collateral",
          "type": "address"
        },
        {
          "internalType": "uint256",
          "name": "_ticketPrice",
          "type": "uint256"
        }
      ],
      "name": "createPool",
      "outputs": [],
      "stateMutability": "nonpayable",
      "type": "function"
    },
    {
      "inputs": [],
      "name": "initialize",
      "outputs": [],
      "stateMutability": "nonpayable",
      "type": "function"
    },
    {
      "inputs": [],
      "name": "owner",
      "outputs": [
        {
          "internalType": "address",
          "name": "",
          "type": "address"
        }
      ],
      "stateMutability": "view",
      "type": "function"
    },
    {
      "inputs": [],
      "name": "paused",
      "outputs": [
        {
          "internalType": "bool",
          "name": "",
          "type": "bool"
        }
      ],
      "stateMutability": "view",
      "type": "function"
    },
    {
      "inputs": [
        {
          "internalType": "uint256",
          "name": "",
          "type": "uint256"
        }
      ],
      "name": "pools",
      "outputs": [
        {
          "internalType": "contract IMenthaPool",
          "name": "",
          "type": "address"
        }
      ],
      "stateMutability": "view",
      "type": "function"
    },
    {
      "inputs": [],
      "name": "renounceOwnership",
      "outputs": [],
      "stateMutability": "nonpayable",
      "type": "function"
    },
    {
      "inputs": [
        {
          "internalType": "address",
          "name": "newOwner",
          "type": "address"
        }
      ],
      "name": "transferOwnership",
      "outputs": [],
      "stateMutability": "nonpayable",
      "type": "function"
    },
    {
      "inputs": [],
      "name": "wallet",
      "outputs": [
        {
          "internalType": "address payable",
          "name": "",
          "type": "address"
        }
      ],
      "stateMutability": "view",
      "type": "function"
    }
  ],
  "bytecode": "0x608060405234801561001057600080fd5b50610b70806100206000396000f3fe608060405234801561001057600080fd5b50600436106100935760003560e01c80638129fc1c116100665780638129fc1c146100e85780638da5cb5b146100f0578063ac4afa38146100f8578063dedddd951461010b578063f2fde38b1461011e57610093565b8063521eb273146100985780635c975abb146100b6578063674ba55d146100cb578063715018a6146100e0575b600080fd5b6100a0610131565b6040516100ad919061098c565b60405180910390f35b6100be610140565b6040516100ad91906109b9565b6100de6100d9366004610924565b610149565b005b6100de6102d1565b6100de61031c565b6100a06103d1565b6100a061010636600461090c565b6103e0565b6100de610119366004610958565b61040a565b6100de61012c3660046108eb565b610483565b60c9546001600160a01b031681565b60975460ff1690565b6101516104f1565b6001600160a01b03166101626103d1565b6001600160a01b0316146101915760405162461bcd60e51b815260040161018890610a8d565b60405180910390fd5b6001600160a01b0382166101b75760405162461bcd60e51b815260040161018890610b03565b600081116101d75760405162461bcd60e51b815260040161018890610a0a565b600083815260ca60205260409020546001600160a01b03168061020c5760405162461bcd60e51b815260040161018890610ac2565b6000610217826104f5565b604051630e66b9c960e21b81529091506001600160a01b0382169063399ae7249061024890879087906004016109a0565b600060405180830381600087803b15801561026257600080fd5b505af1158015610276573d6000803e3d6000fd5b505060cc80546001810182556000919091527f47197230e1e4b29fc0bd84d7d78966c0925452aff72a2a121538b102457e9ebe0180546001600160a01b0319166001600160a01b039490941693909317909255505050505050565b6102d96104f1565b6001600160a01b03166102ea6103d1565b6001600160a01b0316146103105760405162461bcd60e51b815260040161018890610a8d565b61031a6000610547565b565b600054610100900460ff1680610335575060005460ff16155b6103515760405162461bcd60e51b815260040161018890610a3f565b600054610100900460ff1615801561037c576000805460ff1961ff0019909116610100171660011790555b610384610599565b61038c61061d565b610394610685565b61039c6103d1565b60c980546001600160a01b0319166001600160a01b039290921691909117905580156103ce576000805461ff00191690555b50565b6033546001600160a01b031690565b60cc81815481106103f057600080fd5b6000918252602090912001546001600160a01b0316905081565b6104126104f1565b6001600160a01b03166104236103d1565b6001600160a01b0316146104495760405162461bcd60e51b815260040161018890610a8d565b600092835260cb602090815260408085209390935560ca9052912080546001600160a01b0319166001600160a01b03909216919091179055565b61048b6104f1565b6001600160a01b031661049c6103d1565b6001600160a01b0316146104c25760405162461bcd60e51b815260040161018890610a8d565b6001600160a01b0381166104e85760405162461bcd60e51b8152600401610188906109c4565b6103ce81610547565b3390565b6000808260601b9050604051733d602d80600a3d3981f3363d3d373d3d3d363d7360601b81528160148201526e5af43d82803e903d91602b57fd5bf360881b60288201526037816000f0949350505050565b603380546001600160a01b038381166001600160a01b0319831681179093556040519116919082907f8be0079c531659141344cd1fd0a4f28419497f9722a3daafe3b4186f6b6457e090600090a35050565b600054610100900460ff16806105b2575060005460ff16155b6105ce5760405162461bcd60e51b815260040161018890610a3f565b600054610100900460ff161580156105f9576000805460ff1961ff0019909116610100171660011790555b6106016106f5565b610609610768565b80156103ce576000805461ff001916905550565b600054610100900460ff1680610636575060005460ff16155b6106525760405162461bcd60e51b815260040161018890610a3f565b600054610100900460ff1615801561067d576000805460ff1961ff0019909116610100171660011790555b6106096107d8565b600054610100900460ff168061069e575060005460ff16155b6106ba5760405162461bcd60e51b815260040161018890610a3f565b600054610100900460ff161580156106e5576000805460ff1961ff0019909116610100171660011790555b6106ed6106f5565b610609610851565b600054610100900460ff168061070e575060005460ff16155b61072a5760405162461bcd60e51b815260040161018890610a3f565b600054610100900460ff16158015610609576000805460ff1961ff00199091166101001716600117905580156103ce576000805461ff001916905550565b600054610100900460ff1680610781575060005460ff16155b61079d5760405162461bcd60e51b815260040161018890610a3f565b600054610100900460ff161580156107c8576000805460ff1961ff0019909116610100171660011790555b6106096107d36104f1565b610547565b600054610100900460ff16806107f1575060005460ff16155b61080d5760405162461bcd60e51b815260040161018890610a3f565b600054610100900460ff16158015610838576000805460ff1961ff0019909116610100171660011790555b600160655580156103ce576000805461ff001916905550565b600054610100900460ff168061086a575060005460ff16155b6108865760405162461bcd60e51b815260040161018890610a3f565b600054610100900460ff161580156108b1576000805460ff1961ff0019909116610100171660011790555b6097805460ff1916905580156103ce576000805461ff001916905550565b80356001600160a01b03811681146108e657600080fd5b919050565b6000602082840312156108fc578081fd5b610905826108cf565b9392505050565b60006020828403121561091d578081fd5b5035919050565b600080600060608486031215610938578182fd5b83359250610948602085016108cf565b9150604084013590509250925092565b60008060006060848603121561096c578283fd5b8335925060208401359150610983604085016108cf565b90509250925092565b6001600160a01b0391909116815260200190565b6001600160a01b03929092168252602082015260400190565b901515815260200190565b60208082526026908201527f4f776e61626c653a206e6577206f776e657220697320746865207a65726f206160408201526564647265737360d01b606082015260800190565b6020808252818101527f412076616c6964207469636b6574207072696365206973207265717569726564604082015260600190565b6020808252602e908201527f496e697469616c697a61626c653a20636f6e747261637420697320616c72656160408201526d191e481a5b9a5d1a585b1a5e995960921b606082015260800190565b6020808252818101527f4f776e61626c653a2063616c6c6572206973206e6f7420746865206f776e6572604082015260600190565b60208082526021908201527f4d617374657220706f6f6c20636f6e7472616374206e6f74206465706c6f79656040820152601960fa1b606082015260800190565b6020808252601b908201527f412076616c69642061646472657373206973207265717569726564000000000060408201526060019056fea264697066735822122025c21a06e0b5e0fa1444054fefcfa0a8cb5f590aefe0241476d647e651051d5b64736f6c63430008000033",
  "linkReferences": {},
  "deployedLinkReferences": {}
}