{
  "_format": "hh-sol-artifact-1",
  "contractName": "MenthaSinglePool",
  "sourceName": "contracts/MenthaSinglePool.sol",
  "abi": [
    {
      "anonymous": false,
      "inputs": [
        {
          "indexed": true,
          "internalType": "address",
          "name": "owner",
          "type": "address"
        },
        {
          "indexed": true,
          "internalType": "address",
          "name": "spender",
          "type": "address"
        },
        {
          "indexed": false,
          "internalType": "uint256",
          "name": "value",
          "type": "uint256"
        }
      ],
      "name": "Approval",
      "type": "event"
    },
    {
      "anonymous": false,
      "inputs": [
        {
          "indexed": true,
          "internalType": "address",
          "name": "previousOwner",
          "type": "address"
        },
        {
          "indexed": true,
          "internalType": "address",
          "name": "newOwner",
          "type": "address"
        }
      ],
      "name": "OwnershipTransferred",
      "type": "event"
    },
    {
      "anonymous": false,
      "inputs": [
        {
          "indexed": false,
          "internalType": "address",
          "name": "account",
          "type": "address"
        }
      ],
      "name": "Paused",
      "type": "event"
    },
    {
      "anonymous": false,
      "inputs": [
        {
          "indexed": true,
          "internalType": "address",
          "name": "buyer",
          "type": "address"
        },
        {
          "indexed": false,
          "internalType": "uint256",
          "name": "numberOfTickets",
          "type": "uint256"
        },
        {
          "indexed": false,
          "internalType": "uint256",
          "name": "amount",
          "type": "uint256"
        }
      ],
      "name": "TicketsBought",
      "type": "event"
    },
    {
      "anonymous": false,
      "inputs": [
        {
          "indexed": true,
          "internalType": "address",
          "name": "buyer",
          "type": "address"
        },
        {
          "indexed": false,
          "internalType": "uint256",
          "name": "numberOfTickets",
          "type": "uint256"
        },
        {
          "indexed": false,
          "internalType": "uint256",
          "name": "amount",
          "type": "uint256"
        }
      ],
      "name": "TicketsRedeemed",
      "type": "event"
    },
    {
      "anonymous": false,
      "inputs": [
        {
          "indexed": true,
          "internalType": "address",
          "name": "from",
          "type": "address"
        },
        {
          "indexed": true,
          "internalType": "address",
          "name": "to",
          "type": "address"
        },
        {
          "indexed": false,
          "internalType": "uint256",
          "name": "value",
          "type": "uint256"
        }
      ],
      "name": "Transfer",
      "type": "event"
    },
    {
      "anonymous": false,
      "inputs": [
        {
          "indexed": false,
          "internalType": "address",
          "name": "account",
          "type": "address"
        }
      ],
      "name": "Unpaused",
      "type": "event"
    },
    {
      "inputs": [],
      "name": "TOKEN_NAME_SUFFIX",
      "outputs": [
        {
          "internalType": "string",
          "name": "",
          "type": "string"
        }
      ],
      "stateMutability": "view",
      "type": "function"
    },
    {
      "inputs": [],
      "name": "TOKEN_SYMBOL_PREFIX",
      "outputs": [
        {
          "internalType": "string",
          "name": "",
          "type": "string"
        }
      ],
      "stateMutability": "view",
      "type": "function"
    },
    {
      "inputs": [
        {
          "internalType": "address",
          "name": "owner",
          "type": "address"
        },
        {
          "internalType": "address",
          "name": "spender",
          "type": "address"
        }
      ],
      "name": "allowance",
      "outputs": [
        {
          "internalType": "uint256",
          "name": "",
          "type": "uint256"
        }
      ],
      "stateMutability": "view",
      "type": "function"
    },
    {
      "inputs": [
        {
          "internalType": "address",
          "name": "spender",
          "type": "address"
        },
        {
          "internalType": "uint256",
          "name": "amount",
          "type": "uint256"
        }
      ],
      "name": "approve",
      "outputs": [
        {
          "internalType": "bool",
          "name": "",
          "type": "bool"
        }
      ],
      "stateMutability": "nonpayable",
      "type": "function"
    },
    {
      "inputs": [
        {
          "internalType": "address",
          "name": "account",
          "type": "address"
        }
      ],
      "name": "balanceOf",
      "outputs": [
        {
          "internalType": "uint256",
          "name": "",
          "type": "uint256"
        }
      ],
      "stateMutability": "view",
      "type": "function"
    },
    {
      "inputs": [
        {
          "internalType": "uint256",
          "name": "_numberOfTickets",
          "type": "uint256"
        }
      ],
      "name": "buyTickets",
      "outputs": [],
      "stateMutability": "nonpayable",
      "type": "function"
    },
    {
      "inputs": [],
      "name": "collateral",
      "outputs": [
        {
          "internalType": "contract IERC20",
          "name": "",
          "type": "address"
        }
      ],
      "stateMutability": "view",
      "type": "function"
    },
    {
      "inputs": [],
      "name": "decimals",
      "outputs": [
        {
          "internalType": "uint8",
          "name": "",
          "type": "uint8"
        }
      ],
      "stateMutability": "view",
      "type": "function"
    },
    {
      "inputs": [
        {
          "internalType": "address",
          "name": "spender",
          "type": "address"
        },
        {
          "internalType": "uint256",
          "name": "subtractedValue",
          "type": "uint256"
        }
      ],
      "name": "decreaseAllowance",
      "outputs": [
        {
          "internalType": "bool",
          "name": "",
          "type": "bool"
        }
      ],
      "stateMutability": "nonpayable",
      "type": "function"
    },
    {
      "inputs": [],
      "name": "getBalance",
      "outputs": [
        {
          "internalType": "uint256",
          "name": "",
          "type": "uint256"
        }
      ],
      "stateMutability": "view",
      "type": "function"
    },
    {
      "inputs": [
        {
          "internalType": "address",
          "name": "spender",
          "type": "address"
        },
        {
          "internalType": "uint256",
          "name": "addedValue",
          "type": "uint256"
        }
      ],
      "name": "increaseAllowance",
      "outputs": [
        {
          "internalType": "bool",
          "name": "",
          "type": "bool"
        }
      ],
      "stateMutability": "nonpayable",
      "type": "function"
    },
    {
      "inputs": [
        {
          "internalType": "address",
          "name": "_collateral",
          "type": "address"
        },
        {
          "internalType": "uint256",
          "name": "_ticketPrice",
          "type": "uint256"
        }
      ],
      "name": "init",
      "outputs": [],
      "stateMutability": "nonpayable",
      "type": "function"
    },
    {
      "inputs": [],
      "name": "name",
      "outputs": [
        {
          "internalType": "string",
          "name": "",
          "type": "string"
        }
      ],
      "stateMutability": "view",
      "type": "function"
    },
    {
      "inputs": [],
      "name": "numberOfTickets",
      "outputs": [
        {
          "internalType": "uint256",
          "name": "",
          "type": "uint256"
        }
      ],
      "stateMutability": "view",
      "type": "function"
    },
    {
      "inputs": [],
      "name": "owner",
      "outputs": [
        {
          "internalType": "address",
          "name": "",
          "type": "address"
        }
      ],
      "stateMutability": "view",
      "type": "function"
    },
    {
      "inputs": [],
      "name": "paused",
      "outputs": [
        {
          "internalType": "bool",
          "name": "",
          "type": "bool"
        }
      ],
      "stateMutability": "view",
      "type": "function"
    },
    {
      "inputs": [
        {
          "internalType": "uint256",
          "name": "_numberOfTickets",
          "type": "uint256"
        }
      ],
      "name": "redeemTickets",
      "outputs": [],
      "stateMutability": "nonpayable",
      "type": "function"
    },
    {
      "inputs": [],
      "name": "renounceOwnership",
      "outputs": [],
      "stateMutability": "nonpayable",
      "type": "function"
    },
    {
      "inputs": [],
      "name": "symbol",
      "outputs": [
        {
          "internalType": "string",
          "name": "",
          "type": "string"
        }
      ],
      "stateMutability": "view",
      "type": "function"
    },
    {
      "inputs": [],
      "name": "ticketPrice",
      "outputs": [
        {
          "internalType": "uint256",
          "name": "",
          "type": "uint256"
        }
      ],
      "stateMutability": "view",
      "type": "function"
    },
    {
      "inputs": [
        {
          "internalType": "address",
          "name": "_addr",
          "type": "address"
        }
      ],
      "name": "ticketsOf",
      "outputs": [
        {
          "internalType": "uint256",
          "name": "",
          "type": "uint256"
        }
      ],
      "stateMutability": "view",
      "type": "function"
    },
    {
      "inputs": [],
      "name": "totalCollateral",
      "outputs": [
        {
          "internalType": "uint256",
          "name": "",
          "type": "uint256"
        }
      ],
      "stateMutability": "view",
      "type": "function"
    },
    {
      "inputs": [],
      "name": "totalSupply",
      "outputs": [
        {
          "internalType": "uint256",
          "name": "",
          "type": "uint256"
        }
      ],
      "stateMutability": "view",
      "type": "function"
    },
    {
      "inputs": [
        {
          "internalType": "address",
          "name": "recipient",
          "type": "address"
        },
        {
          "internalType": "uint256",
          "name": "amount",
          "type": "uint256"
        }
      ],
      "name": "transfer",
      "outputs": [
        {
          "internalType": "bool",
          "name": "",
          "type": "bool"
        }
      ],
      "stateMutability": "nonpayable",
      "type": "function"
    },
    {
      "inputs": [
        {
          "internalType": "address",
          "name": "sender",
          "type": "address"
        },
        {
          "internalType": "address",
          "name": "recipient",
          "type": "address"
        },
        {
          "internalType": "uint256",
          "name": "amount",
          "type": "uint256"
        }
      ],
      "name": "transferFrom",
      "outputs": [
        {
          "internalType": "bool",
          "name": "",
          "type": "bool"
        }
      ],
      "stateMutability": "nonpayable",
      "type": "function"
    },
    {
      "inputs": [
        {
          "internalType": "address",
          "name": "newOwner",
          "type": "address"
        }
      ],
      "name": "transferOwnership",
      "outputs": [],
      "stateMutability": "nonpayable",
      "type": "function"
    }
  ],
  "bytecode": "0x608060405234801561001057600080fd5b50611d02806100206000396000f3fe608060405234801561001057600080fd5b506004361061018e5760003560e01c80634ac8eb5f116100de57806395d89b4111610097578063d8dfeb4511610071578063d8dfeb45146102f2578063dd62ed3e146102fa578063f2fde38b1461030d578063f4fe103a146103205761018e565b806395d89b41146102c4578063a457c2d7146102cc578063a9059cbb146102df5761018e565b80634ac8eb5f1461027c578063557323c7146102845780635c975abb1461028c57806370a0823114610294578063715018a6146102a75780638da5cb5b146102af5761018e565b80632940e8281161014b5780633165792611610125578063316579261461023b578063395093511461024e578063399ae7241461026157806345745c10146102745761018e565b80632940e828146102095780632f36663714610211578063313ce567146102265761018e565b806306fdde0314610193578063095ea7b3146101b157806312065fe0146101d15780631209b1f6146101e657806318160ddd146101ee57806323b872dd146101f6575b600080fd5b61019b610333565b6040516101a8919061179b565b60405180910390f35b6101c46101bf36600461162d565b6103c5565b6040516101a89190611790565b6101d96103e2565b6040516101a89190611bc1565b6101d9610468565b6101d961046e565b6101c46102043660046115f2565b610474565b61019b61050d565b61022461021f366004611676565b61052c565b005b61022e610823565b6040516101a89190611bd8565b6101d961024936600461159f565b610828565b6101c461025c36600461162d565b610847565b61022461026f36600461162d565b61089b565b6101d96108e2565b6101d96108e8565b61019b6108ef565b6101c461091a565b6101d96102a236600461159f565b610923565b61022461093e565b6102b7610989565b6040516101a89190611725565b61019b610998565b6101c46102da36600461162d565b6109a7565b6101c46102ed36600461162d565b610a20565b6102b7610a34565b6101d96103083660046115c0565b610a43565b61022461031b36600461159f565b610a6e565b61022461032e366004611676565b610adf565b60606036805461034290611c60565b80601f016020809104026020016040519081016040528092919081815260200182805461036e90611c60565b80156103bb5780601f10610390576101008083540402835291602001916103bb565b820191906000526020600020905b81548152906001019060200180831161039e57829003601f168201915b5050505050905090565b60006103d96103d2610b62565b8484610b66565b50600192915050565b60fe546040516370a0823160e01b81526000916001600160a01b0316906370a0823190610413903090600401611725565b60206040518083038186803b15801561042b57600080fd5b505afa15801561043f573d6000803e3d6000fd5b505050506040513d601f19601f82011682018060405250810190610463919061168e565b905090565b60ff5481565b60355490565b6000610481848484610c1a565b6001600160a01b0384166000908152603460205260408120816104a2610b62565b6001600160a01b03166001600160a01b03168152602001908152602001600020549050828110156104ee5760405162461bcd60e51b81526004016104e5906119a6565b60405180910390fd5b610502856104fa610b62565b858403610b66565b506001949350505050565b604051806040016040528060038152602001620dae8d60eb1b81525081565b60008160ff5461053c9190611bfe565b60fe546040516370a0823160e01b815291925082916001600160a01b03909116906370a0823190610571903390600401611725565b60206040518083038186803b15801561058957600080fd5b505afa15801561059d573d6000803e3d6000fd5b505050506040513d601f19601f820116820180604052508101906105c1919061168e565b10156105df5760405162461bcd60e51b81526004016104e590611b1a565b33600090815260fb6020526040812080548492906105fe908490611be6565b90915550600090505b828110156106635760fc80546001810182556000919091527f371f36870d18f32a11fea0f144b021c8b407bb50f8e0267c711123f454b963c00180546001600160a01b031916331790558061065b81611c9b565b915050610607565b508160fd60008282546106769190611be6565b925050819055508061010060008282546106909190611be6565b909155505060fe54604051636eb1769f60e11b815282916001600160a01b03169063dd62ed3e906106c79033903090600401611739565b60206040518083038186803b1580156106df57600080fd5b505afa1580156106f3573d6000803e3d6000fd5b505050506040513d601f19601f82011682018060405250810190610717919061168e565b10156107355760405162461bcd60e51b81526004016104e5906118df565b60fe546040516323b872dd60e01b81526000916001600160a01b0316906323b872dd9061076a90339030908790600401611753565b602060405180830381600087803b15801561078457600080fd5b505af1158015610798573d6000803e3d6000fd5b505050506040513d601f19601f820116820180604052508101906107bc9190611656565b9050806107db5760405162461bcd60e51b81526004016104e590611929565b336001600160a01b03167fb0ebd247b49b0f0079dfe3093ede3e56ddb43164363f38bf1576023c076ab4f28484604051610816929190611bca565b60405180910390a2505050565b601290565b6001600160a01b038116600090815260fb60205260409020545b919050565b60006103d9610854610b62565b848460346000610862610b62565b6001600160a01b03908116825260208083019390935260409182016000908120918b16815292529020546108969190611be6565b610b66565b60fe80546001600160a01b0319166001600160a01b03841617905560ff8190556040805180820190915260038152624b4b4b60e81b60208201526108de90610d44565b5050565b60fd5481565b6101005481565b6040518060400160405280600f81526020016e26281026b2b73a3430902a37b5b2b760891b81525081565b60c95460ff1690565b6001600160a01b031660009081526033602052604090205490565b610946610b62565b6001600160a01b0316610957610989565b6001600160a01b03161461097d5760405162461bcd60e51b81526004016104e5906119ee565b6109876000610e07565b565b6065546001600160a01b031690565b60606037805461034290611c60565b600080603460006109b6610b62565b6001600160a01b0390811682526020808301939093526040918201600090812091881681529252902054905082811015610a025760405162461bcd60e51b81526004016104e590611b7c565b610a16610a0d610b62565b85858403610b66565b5060019392505050565b60006103d9610a2d610b62565b8484610c1a565b60fe546001600160a01b031681565b6001600160a01b03918216600090815260346020908152604080832093909416825291909152205490565b610a76610b62565b6001600160a01b0316610a87610989565b6001600160a01b031614610aad5760405162461bcd60e51b81526004016104e5906119ee565b6001600160a01b038116610ad35760405162461bcd60e51b81526004016104e590611811565b610adc81610e07565b50565b60026097541415610b025760405162461bcd60e51b81526004016104e590611b45565b600260975533600090815260fb602052604090205415801590610b34575033600090815260fb60205260409020548111155b610b505760405162461bcd60e51b81526004016104e590611ae3565b610b5a8133610e59565b506001609755565b3390565b6001600160a01b038316610b8c5760405162461bcd60e51b81526004016104e590611a9f565b6001600160a01b038216610bb25760405162461bcd60e51b81526004016104e590611857565b6001600160a01b0380841660008181526034602090815260408083209487168084529490915290819020849055517f8c5be1e5ebec7d5bd14f71427d1e84f3dd0314c0f7b2291e5b200ac8c7c3b92590610c0d908590611bc1565b60405180910390a3505050565b6001600160a01b038316610c405760405162461bcd60e51b81526004016104e590611a5a565b6001600160a01b038216610c665760405162461bcd60e51b81526004016104e5906117ce565b610c7183838361108e565b6001600160a01b03831660009081526033602052604090205481811015610caa5760405162461bcd60e51b81526004016104e590611899565b6001600160a01b03808516600090815260336020526040808220858503905591851681529081208054849290610ce1908490611be6565b92505081905550826001600160a01b0316846001600160a01b03167fddf252ad1be2c89b69c2b068fc378daa952ba7f163c4a11628f55a4df523b3ef84604051610d2b9190611bc1565b60405180910390a3610d3e84848461108e565b50505050565b610d4c611093565b610d5461110f565b610d5c61117f565b610adc604051806040016040528060038152602001620dae8d60eb1b815250826040518060400160405280600f81526020016e26281026b2b73a3430902a37b5b2b760891b815250604051602001610db6939291906116d5565b604051602081830303815290604052604051806040016040528060038152602001620dae8d60eb1b81525083604051602001610df39291906116a6565b6040516020818303038152906040526111ef565b606580546001600160a01b038381166001600160a01b0319831681179093556040519116919082907f8be0079c531659141344cd1fd0a4f28419497f9722a3daafe3b4186f6b6457e090600090a35050565b60008260ff54610e699190611bfe565b905080610100541015610e8e5760405162461bcd60e51b81526004016104e590611a23565b33600090815260fb602052604081208054859290610ead908490611c1d565b925050819055508260fd6000828254610ec69190611c1d565b92505081905550806101006000828254610ee09190611c1d565b9091555060009050805b60fc54811015610f9f57836001600160a01b031660fc8281548110610f1f57634e487b7160e01b600052603260045260246000fd5b6000918252602090912001546001600160a01b0316148015610f4057508482105b15610f8d5760fc8181548110610f6657634e487b7160e01b600052603260045260246000fd5b600091825260209091200180546001600160a01b0319169055610f8a600183611be6565b91505b80610f9781611c9b565b915050610eea565b5060fe5460405163a9059cbb60e01b81526000916001600160a01b03169063a9059cbb90610fd39033908790600401611777565b602060405180830381600087803b158015610fed57600080fd5b505af1158015611001573d6000803e3d6000fd5b505050506040513d601f19601f820116820180604052508101906110259190611656565b9050806110445760405162461bcd60e51b81526004016104e590611929565b336001600160a01b03167f29b7634d7bc5a99eff5f680b3fec0cb5c46c4a3c1303c9c436e7b97e4bfa4fb4868560405161107f929190611bca565b60405180910390a25050505050565b505050565b600054610100900460ff16806110ac575060005460ff16155b6110c85760405162461bcd60e51b81526004016104e590611958565b600054610100900460ff161580156110f3576000805460ff1961ff0019909116610100171660011790555b6110fb611277565b8015610adc576000805461ff001916905550565b600054610100900460ff1680611128575060005460ff16155b6111445760405162461bcd60e51b81526004016104e590611958565b600054610100900460ff1615801561116f576000805460ff1961ff0019909116610100171660011790555b6111776112f0565b6110fb611363565b600054610100900460ff1680611198575060005460ff16155b6111b45760405162461bcd60e51b81526004016104e590611958565b600054610100900460ff161580156111df576000805460ff1961ff0019909116610100171660011790555b6111e76112f0565b6110fb6113d3565b600054610100900460ff1680611208575060005460ff16155b6112245760405162461bcd60e51b81526004016104e590611958565b600054610100900460ff1615801561124f576000805460ff1961ff0019909116610100171660011790555b6112576112f0565b6112618383611451565b801561108e576000805461ff0019169055505050565b600054610100900460ff1680611290575060005460ff16155b6112ac5760405162461bcd60e51b81526004016104e590611958565b600054610100900460ff161580156112d7576000805460ff1961ff0019909116610100171660011790555b60016097558015610adc576000805461ff001916905550565b600054610100900460ff1680611309575060005460ff16155b6113255760405162461bcd60e51b81526004016104e590611958565b600054610100900460ff161580156110fb576000805460ff1961ff0019909116610100171660011790558015610adc576000805461ff001916905550565b600054610100900460ff168061137c575060005460ff16155b6113985760405162461bcd60e51b81526004016104e590611958565b600054610100900460ff161580156113c3576000805460ff1961ff0019909116610100171660011790555b6110fb6113ce610b62565b610e07565b600054610100900460ff16806113ec575060005460ff16155b6114085760405162461bcd60e51b81526004016104e590611958565b600054610100900460ff16158015611433576000805460ff1961ff0019909116610100171660011790555b60c9805460ff191690558015610adc576000805461ff001916905550565b600054610100900460ff168061146a575060005460ff16155b6114865760405162461bcd60e51b81526004016104e590611958565b600054610100900460ff161580156114b1576000805460ff1961ff0019909116610100171660011790555b82516114c49060369060208601906114ef565b5081516114d89060379060208501906114ef565b50801561108e576000805461ff0019169055505050565b8280546114fb90611c60565b90600052602060002090601f01602090048101928261151d5760008555611563565b82601f1061153657805160ff1916838001178555611563565b82800160010185558215611563579182015b82811115611563578251825591602001919060010190611548565b5061156f929150611573565b5090565b5b8082111561156f5760008155600101611574565b80356001600160a01b038116811461084257600080fd5b6000602082840312156115b0578081fd5b6115b982611588565b9392505050565b600080604083850312156115d2578081fd5b6115db83611588565b91506115e960208401611588565b90509250929050565b600080600060608486031215611606578081fd5b61160f84611588565b925061161d60208501611588565b9150604084013590509250925092565b6000806040838503121561163f578182fd5b61164883611588565b946020939093013593505050565b600060208284031215611667578081fd5b815180151581146115b9578182fd5b600060208284031215611687578081fd5b5035919050565b60006020828403121561169f578081fd5b5051919050565b600083516116b8818460208801611c34565b8351908301906116cc818360208801611c34565b01949350505050565b600084516116e7818460208901611c34565b8451908301906116fb818360208901611c34565b600160fd1b91019081528351611718816001840160208801611c34565b0160010195945050505050565b6001600160a01b0391909116815260200190565b6001600160a01b0392831681529116602082015260400190565b6001600160a01b039384168152919092166020820152604081019190915260600190565b6001600160a01b03929092168252602082015260400190565b901515815260200190565b60006020825282518060208401526117ba816040850160208701611c34565b601f01601f19169190910160400192915050565b60208082526023908201527f45524332303a207472616e7366657220746f20746865207a65726f206164647260408201526265737360e81b606082015260800190565b60208082526026908201527f4f776e61626c653a206e6577206f776e657220697320746865207a65726f206160408201526564647265737360d01b606082015260800190565b60208082526022908201527f45524332303a20617070726f766520746f20746865207a65726f206164647265604082015261737360f01b606082015260800190565b60208082526026908201527f45524332303a207472616e7366657220616d6f756e7420657863656564732062604082015265616c616e636560d01b606082015260800190565b6020808252602a908201527f436f6e7472616374206973206e6f7420616c6c6f77656420746f207472616e7360408201526966657220746f6b656e7360b01b606082015260800190565b602080825260159082015274151bdad95b881d1c985b9cd9995c8819985a5b1959605a1b604082015260600190565b6020808252602e908201527f496e697469616c697a61626c653a20636f6e747261637420697320616c72656160408201526d191e481a5b9a5d1a585b1a5e995960921b606082015260800190565b60208082526028908201527f45524332303a207472616e7366657220616d6f756e74206578636565647320616040820152676c6c6f77616e636560c01b606082015260800190565b6020808252818101527f4f776e61626c653a2063616c6c6572206973206e6f7420746865206f776e6572604082015260600190565b6020808252601f908201527f4e6f7420656e6f756768206d6f6e657920696e207468652062616c616e636500604082015260600190565b60208082526025908201527f45524332303a207472616e736665722066726f6d20746865207a65726f206164604082015264647265737360d81b606082015260800190565b60208082526024908201527f45524332303a20617070726f76652066726f6d20746865207a65726f206164646040820152637265737360e01b606082015260800190565b6020808252601e908201527f596f7520646f206e6f74206861766520656e6f756768207469636b6574730000604082015260600190565b6020808252601190820152704e6f7420656e6f75676820746f6b656e7360781b604082015260600190565b6020808252601f908201527f5265656e7472616e637947756172643a207265656e7472616e742063616c6c00604082015260600190565b60208082526025908201527f45524332303a2064656372656173656420616c6c6f77616e63652062656c6f77604082015264207a65726f60d81b606082015260800190565b90815260200190565b918252602082015260400190565b60ff91909116815260200190565b60008219821115611bf957611bf9611cb6565b500190565b6000816000190483118215151615611c1857611c18611cb6565b500290565b600082821015611c2f57611c2f611cb6565b500390565b60005b83811015611c4f578181015183820152602001611c37565b83811115610d3e5750506000910152565b600281046001821680611c7457607f821691505b60208210811415611c9557634e487b7160e01b600052602260045260246000fd5b50919050565b6000600019821415611caf57611caf611cb6565b5060010190565b634e487b7160e01b600052601160045260246000fdfea2646970667358221220486b58d2eab9659e83166e7385b4f7042181d8af7627b44f969c6a15fb0c1d0664736f6c63430008000033",
  "linkReferences": {},
  "deployedLinkReferences": {}
}