{
  "_format": "hh-sol-artifact-1",
  "contractName": "MenthaSinglePool",
  "sourceName": "contracts/MenthaSinglePool.sol",
  "abi": [
    {
      "anonymous": false,
      "inputs": [
        {
          "indexed": true,
          "internalType": "address",
          "name": "owner",
          "type": "address"
        },
        {
          "indexed": true,
          "internalType": "address",
          "name": "spender",
          "type": "address"
        },
        {
          "indexed": false,
          "internalType": "uint256",
          "name": "value",
          "type": "uint256"
        }
      ],
      "name": "Approval",
      "type": "event"
    },
    {
      "anonymous": false,
      "inputs": [
        {
          "indexed": false,
          "internalType": "uint256",
          "name": "nftId",
          "type": "uint256"
        },
        {
          "indexed": true,
          "internalType": "address",
          "name": "nftAddress",
          "type": "address"
        },
        {
          "indexed": false,
          "internalType": "uint256",
          "name": "nftIndex",
          "type": "uint256"
        },
        {
          "indexed": true,
          "internalType": "address",
          "name": "creator",
          "type": "address"
        }
      ],
      "name": "NFTAdded",
      "type": "event"
    },
    {
      "anonymous": false,
      "inputs": [
        {
          "indexed": true,
          "internalType": "address",
          "name": "previousOwner",
          "type": "address"
        },
        {
          "indexed": true,
          "internalType": "address",
          "name": "newOwner",
          "type": "address"
        }
      ],
      "name": "OwnershipTransferred",
      "type": "event"
    },
    {
      "anonymous": false,
      "inputs": [
        {
          "indexed": false,
          "internalType": "address",
          "name": "account",
          "type": "address"
        }
      ],
      "name": "Paused",
      "type": "event"
    },
    {
      "anonymous": false,
      "inputs": [
        {
          "indexed": true,
          "internalType": "address",
          "name": "buyer",
          "type": "address"
        },
        {
          "indexed": false,
          "internalType": "uint256",
          "name": "numberOfTickets",
          "type": "uint256"
        },
        {
          "indexed": false,
          "internalType": "uint256",
          "name": "amount",
          "type": "uint256"
        }
      ],
      "name": "TicketsBought",
      "type": "event"
    },
    {
      "anonymous": false,
      "inputs": [
        {
          "indexed": true,
          "internalType": "address",
          "name": "buyer",
          "type": "address"
        },
        {
          "indexed": false,
          "internalType": "uint256",
          "name": "numberOfTickets",
          "type": "uint256"
        },
        {
          "indexed": false,
          "internalType": "uint256",
          "name": "amount",
          "type": "uint256"
        }
      ],
      "name": "TicketsRedeemed",
      "type": "event"
    },
    {
      "anonymous": false,
      "inputs": [
        {
          "indexed": true,
          "internalType": "address",
          "name": "from",
          "type": "address"
        },
        {
          "indexed": true,
          "internalType": "address",
          "name": "to",
          "type": "address"
        },
        {
          "indexed": false,
          "internalType": "uint256",
          "name": "value",
          "type": "uint256"
        }
      ],
      "name": "Transfer",
      "type": "event"
    },
    {
      "anonymous": false,
      "inputs": [
        {
          "indexed": false,
          "internalType": "address",
          "name": "account",
          "type": "address"
        }
      ],
      "name": "Unpaused",
      "type": "event"
    },
    {
      "inputs": [],
      "name": "TOKEN_NAME_SUFFIX",
      "outputs": [
        {
          "internalType": "string",
          "name": "",
          "type": "string"
        }
      ],
      "stateMutability": "view",
      "type": "function"
    },
    {
      "inputs": [],
      "name": "TOKEN_SYMBOL_PREFIX",
      "outputs": [
        {
          "internalType": "string",
          "name": "",
          "type": "string"
        }
      ],
      "stateMutability": "view",
      "type": "function"
    },
    {
      "inputs": [
        {
          "internalType": "address",
          "name": "owner",
          "type": "address"
        },
        {
          "internalType": "address",
          "name": "spender",
          "type": "address"
        }
      ],
      "name": "allowance",
      "outputs": [
        {
          "internalType": "uint256",
          "name": "",
          "type": "uint256"
        }
      ],
      "stateMutability": "view",
      "type": "function"
    },
    {
      "inputs": [
        {
          "internalType": "address",
          "name": "_nftAddress",
          "type": "address"
        },
        {
          "internalType": "uint256",
          "name": "_nftIndex",
          "type": "uint256"
        }
      ],
      "name": "appendNFT",
      "outputs": [],
      "stateMutability": "nonpayable",
      "type": "function"
    },
    {
      "inputs": [
        {
          "internalType": "address",
          "name": "spender",
          "type": "address"
        },
        {
          "internalType": "uint256",
          "name": "amount",
          "type": "uint256"
        }
      ],
      "name": "approve",
      "outputs": [
        {
          "internalType": "bool",
          "name": "",
          "type": "bool"
        }
      ],
      "stateMutability": "nonpayable",
      "type": "function"
    },
    {
      "inputs": [
        {
          "internalType": "address",
          "name": "account",
          "type": "address"
        }
      ],
      "name": "balanceOf",
      "outputs": [
        {
          "internalType": "uint256",
          "name": "",
          "type": "uint256"
        }
      ],
      "stateMutability": "view",
      "type": "function"
    },
    {
      "inputs": [
        {
          "internalType": "uint256",
          "name": "_numberOfTickets",
          "type": "uint256"
        }
      ],
      "name": "buyTickets",
      "outputs": [],
      "stateMutability": "nonpayable",
      "type": "function"
    },
    {
      "inputs": [],
      "name": "collateral",
      "outputs": [
        {
          "internalType": "contract IERC20",
          "name": "",
          "type": "address"
        }
      ],
      "stateMutability": "view",
      "type": "function"
    },
    {
      "inputs": [],
      "name": "decimals",
      "outputs": [
        {
          "internalType": "uint8",
          "name": "",
          "type": "uint8"
        }
      ],
      "stateMutability": "view",
      "type": "function"
    },
    {
      "inputs": [
        {
          "internalType": "address",
          "name": "spender",
          "type": "address"
        },
        {
          "internalType": "uint256",
          "name": "subtractedValue",
          "type": "uint256"
        }
      ],
      "name": "decreaseAllowance",
      "outputs": [
        {
          "internalType": "bool",
          "name": "",
          "type": "bool"
        }
      ],
      "stateMutability": "nonpayable",
      "type": "function"
    },
    {
      "inputs": [],
      "name": "getBalance",
      "outputs": [
        {
          "internalType": "uint256",
          "name": "",
          "type": "uint256"
        }
      ],
      "stateMutability": "view",
      "type": "function"
    },
    {
      "inputs": [
        {
          "internalType": "address",
          "name": "spender",
          "type": "address"
        },
        {
          "internalType": "uint256",
          "name": "addedValue",
          "type": "uint256"
        }
      ],
      "name": "increaseAllowance",
      "outputs": [
        {
          "internalType": "bool",
          "name": "",
          "type": "bool"
        }
      ],
      "stateMutability": "nonpayable",
      "type": "function"
    },
    {
      "inputs": [
        {
          "internalType": "string",
          "name": "_symbol",
          "type": "string"
        },
        {
          "internalType": "address",
          "name": "_collateral",
          "type": "address"
        },
        {
          "internalType": "uint256",
          "name": "_ticketPrice",
          "type": "uint256"
        }
      ],
      "name": "initialize",
      "outputs": [],
      "stateMutability": "nonpayable",
      "type": "function"
    },
    {
      "inputs": [
        {
          "internalType": "string",
          "name": "_symbol",
          "type": "string"
        }
      ],
      "name": "initialize",
      "outputs": [],
      "stateMutability": "nonpayable",
      "type": "function"
    },
    {
      "inputs": [],
      "name": "name",
      "outputs": [
        {
          "internalType": "string",
          "name": "",
          "type": "string"
        }
      ],
      "stateMutability": "view",
      "type": "function"
    },
    {
      "inputs": [
        {
          "internalType": "uint256",
          "name": "",
          "type": "uint256"
        }
      ],
      "name": "nfts",
      "outputs": [
        {
          "internalType": "address",
          "name": "addr",
          "type": "address"
        },
        {
          "internalType": "uint256",
          "name": "index",
          "type": "uint256"
        },
        {
          "internalType": "address payable",
          "name": "creator",
          "type": "address"
        }
      ],
      "stateMutability": "view",
      "type": "function"
    },
    {
      "inputs": [],
      "name": "numberOfNFT",
      "outputs": [
        {
          "internalType": "uint256",
          "name": "",
          "type": "uint256"
        }
      ],
      "stateMutability": "view",
      "type": "function"
    },
    {
      "inputs": [],
      "name": "numberOfTickets",
      "outputs": [
        {
          "internalType": "uint256",
          "name": "",
          "type": "uint256"
        }
      ],
      "stateMutability": "view",
      "type": "function"
    },
    {
      "inputs": [],
      "name": "owner",
      "outputs": [
        {
          "internalType": "address",
          "name": "",
          "type": "address"
        }
      ],
      "stateMutability": "view",
      "type": "function"
    },
    {
      "inputs": [],
      "name": "paused",
      "outputs": [
        {
          "internalType": "bool",
          "name": "",
          "type": "bool"
        }
      ],
      "stateMutability": "view",
      "type": "function"
    },
    {
      "inputs": [
        {
          "internalType": "uint256",
          "name": "_numberOfTickets",
          "type": "uint256"
        }
      ],
      "name": "redeemTickets",
      "outputs": [],
      "stateMutability": "nonpayable",
      "type": "function"
    },
    {
      "inputs": [],
      "name": "renounceOwnership",
      "outputs": [],
      "stateMutability": "nonpayable",
      "type": "function"
    },
    {
      "inputs": [],
      "name": "symbol",
      "outputs": [
        {
          "internalType": "string",
          "name": "",
          "type": "string"
        }
      ],
      "stateMutability": "view",
      "type": "function"
    },
    {
      "inputs": [],
      "name": "ticketPrice",
      "outputs": [
        {
          "internalType": "uint256",
          "name": "",
          "type": "uint256"
        }
      ],
      "stateMutability": "view",
      "type": "function"
    },
    {
      "inputs": [
        {
          "internalType": "address",
          "name": "_addr",
          "type": "address"
        }
      ],
      "name": "ticketsOf",
      "outputs": [
        {
          "internalType": "uint256",
          "name": "",
          "type": "uint256"
        }
      ],
      "stateMutability": "view",
      "type": "function"
    },
    {
      "inputs": [],
      "name": "totalCollateral",
      "outputs": [
        {
          "internalType": "uint256",
          "name": "",
          "type": "uint256"
        }
      ],
      "stateMutability": "view",
      "type": "function"
    },
    {
      "inputs": [],
      "name": "totalSupply",
      "outputs": [
        {
          "internalType": "uint256",
          "name": "",
          "type": "uint256"
        }
      ],
      "stateMutability": "view",
      "type": "function"
    },
    {
      "inputs": [
        {
          "internalType": "address",
          "name": "recipient",
          "type": "address"
        },
        {
          "internalType": "uint256",
          "name": "amount",
          "type": "uint256"
        }
      ],
      "name": "transfer",
      "outputs": [
        {
          "internalType": "bool",
          "name": "",
          "type": "bool"
        }
      ],
      "stateMutability": "nonpayable",
      "type": "function"
    },
    {
      "inputs": [
        {
          "internalType": "address",
          "name": "sender",
          "type": "address"
        },
        {
          "internalType": "address",
          "name": "recipient",
          "type": "address"
        },
        {
          "internalType": "uint256",
          "name": "amount",
          "type": "uint256"
        }
      ],
      "name": "transferFrom",
      "outputs": [
        {
          "internalType": "bool",
          "name": "",
          "type": "bool"
        }
      ],
      "stateMutability": "nonpayable",
      "type": "function"
    },
    {
      "inputs": [],
      "name": "transferNFT",
      "outputs": [],
      "stateMutability": "nonpayable",
      "type": "function"
    },
    {
      "inputs": [
        {
          "internalType": "address",
          "name": "newOwner",
          "type": "address"
        }
      ],
      "name": "transferOwnership",
      "outputs": [],
      "stateMutability": "nonpayable",
      "type": "function"
    }
  ],
  "bytecode": "0x608060405234801561001057600080fd5b506126e0806100206000396000f3fe608060405234801561001057600080fd5b50600436106101e55760003560e01c80634ac8eb5f1161010f578063a4fa3734116100a2578063e0921f8511610071578063e0921f8514610396578063f2fde38b146103a9578063f4fe103a146103bc578063f62d1888146103cf576101e5565b8063a4fa373414610360578063a9059cbb14610368578063d8dfeb451461037b578063dd62ed3e14610383576101e5565b8063715018a6116100de578063715018a6146103285780638da5cb5b1461033057806395d89b4114610345578063a457c2d71461034d576101e5565b80634ac8eb5f146102fd578063557323c7146103055780635c975abb1461030d57806370a0823114610315576101e5565b80632940e828116101875780633748a5c2116101565780633748a5c2146102c757806339509351146102cf57806345745c10146102e25780634616b6fb146102ea576101e5565b80632940e828146102825780632f3666371461028a578063313ce5671461029f57806331657926146102b4576101e5565b80631209b1f6116101c35780631209b1f61461023d57806318160ddd1461024557806323b872dd1461024d578063265aa62114610260576101e5565b806306fdde03146101ea578063095ea7b31461020857806312065fe014610228575b600080fd5b6101f26103e2565b6040516101ff9190612003565b60405180910390f35b61021b610216366004611de0565b610474565b6040516101ff9190611ff8565b610230610491565b6040516101ff9190612562565b610230610518565b61023061051f565b61021b61025b366004611da0565b610525565b61027361026e366004611ead565b6105be565b6040516101ff93929190611fd5565b6101f26105fc565b61029d610298366004611ead565b61061b565b005b6102a7610920565b6040516101ff919061256b565b6102306102c2366004611d29565b610925565b610230610940565b61021b6102dd366004611de0565b610952565b6102306109a6565b61029d6102f8366004611de0565b6109ac565b610230610b93565b6101f2610b9a565b61021b610bc5565b610230610323366004611d29565b610bce565b61029d610be9565b610338610c34565b6040516101ff9190611f6a565b6101f2610c43565b61021b61035b366004611de0565b610c52565b61029d610ccb565b61021b610376366004611de0565b610e0a565b610338610e1e565b610230610391366004611d68565b610e2e565b61029d6103a4366004611e66565b610e59565b61029d6103b7366004611d29565b610efc565b61029d6103ca366004611ead565b610f6d565b61029d6103dd366004611e2b565b611223565b6060603680546103f1906125f3565b80601f016020809104026020016040519081016040528092919081815260200182805461041d906125f3565b801561046a5780601f1061043f5761010080835404028352916020019161046a565b820191906000526020600020905b81548152906001019060200180831161044d57829003601f168201915b5050505050905090565b600061048861048161135c565b8484611360565b50600192915050565b610100546040516370a0823160e01b81526000916001600160a01b0316906370a08231906104c3903090600401611f6a565b60206040518083038186803b1580156104db57600080fd5b505afa1580156104ef573d6000803e3d6000fd5b505050506040513d601f19601f820116820180604052508101906105139190611ec5565b905090565b6101015481565b60355490565b6000610532848484611407565b6001600160a01b03841660009081526034602052604081208161055361135c565b6001600160a01b03166001600160a01b031681526020019081526020016000205490508281101561059f5760405162461bcd60e51b815260040161059690612250565b60405180910390fd5b6105b3856105ab61135c565b858403611360565b506001949350505050565b60fe81815481106105ce57600080fd5b60009182526020909120600390910201805460018201546002909201546001600160a01b0391821693501683565b604051806040016040528060038152602001620dae8d60eb1b81525081565b6000816101015461062c9190612591565b610100546040516370a0823160e01b815291925082916001600160a01b03909116906370a0823190610662903390600401611f6a565b60206040518083038186803b15801561067a57600080fd5b505afa15801561068e573d6000803e3d6000fd5b505050506040513d601f19601f820116820180604052508101906106b29190611ec5565b10156106d05760405162461bcd60e51b81526004016105969061244d565b33600090815260fb6020526040812080548492906106ef908490612579565b90915550600090505b828110156107545760fc80546001810182556000919091527f371f36870d18f32a11fea0f144b021c8b407bb50f8e0267c711123f454b963c00180546001600160a01b031916331790558061074c8161262e565b9150506106f8565b508160fd60008282546107679190612579565b925050819055508061010260008282546107819190612579565b909155505061010054604051636eb1769f60e11b815282916001600160a01b03169063dd62ed3e906107b99033903090600401611fa2565b60206040518083038186803b1580156107d157600080fd5b505afa1580156107e5573d6000803e3d6000fd5b505050506040513d601f19601f820116820180604052508101906108099190611ec5565b10156108275760405162461bcd60e51b815260040161059690612189565b610100546040516323b872dd60e01b81526000916001600160a01b0316906323b872dd9061085d90339030908790600401611f7e565b602060405180830381600087803b15801561087757600080fd5b505af115801561088b573d6000803e3d6000fd5b505050506040513d601f19601f820116820180604052508101906108af9190611e0b565b9050806108ce5760405162461bcd60e51b8152600401610596906121d3565b6108d8338361152b565b336001600160a01b03167fb0ebd247b49b0f0079dfe3093ede3e56ddb43164363f38bf1576023c076ab4f28484604051610913929190611f5c565b60405180910390a2505050565b601290565b6001600160a01b0316600090815260fb602052604090205490565b60ff5460fe54600091610513916125b0565b600061048861095f61135c565b84846034600061096d61135c565b6001600160a01b03908116825260208083019390935260409182016000908120918b16815292529020546109a19190612579565b611360565b60fd5481565b6001600160a01b0382166109d25760405162461bcd60e51b8152600401610596906124af565b60405163020604bf60e21b815230906001600160a01b0384169063081812fc90610a00908590600401612562565b60206040518083038186803b158015610a1857600080fd5b505afa158015610a2c573d6000803e3d6000fd5b505050506040513d601f19601f82011682018060405250810190610a509190611d4c565b6001600160a01b031614610a765760405162461bcd60e51b815260040161059690612405565b604080516060810182526001600160a01b03808516808352602083018581523394840185815260fe8054600181810183556000839052875160039092027f54075df80ec1ae6ac9100e1fd0ebf3246c17f5c933137af392011f4c5f61513a810180549389166001600160a01b031994851617905594517f54075df80ec1ae6ac9100e1fd0ebf3246c17f5c933137af392011f4c5f61513b86015592517f54075df80ec1ae6ac9100e1fd0ebf3246c17f5c933137af392011f4c5f61513c9094018054949096169316929092179093555492939290917fa9523996ab8260619361ea56171ab851f63da5afbd7f6436d398a65a077c0e6b91610b7791906125b0565b85604051610b86929190611f5c565b60405180910390a3505050565b6101025481565b6040518060400160405280600f81526020016e26281026b2b73a3430902a37b5b2b760891b81525081565b60c95460ff1690565b6001600160a01b031660009081526033602052604090205490565b610bf161135c565b6001600160a01b0316610c02610c34565b6001600160a01b031614610c285760405162461bcd60e51b815260040161059690612298565b610c3260006115f3565b565b6065546001600160a01b031690565b6060603780546103f1906125f3565b60008060346000610c6161135c565b6001600160a01b0390811682526020808301939093526040918201600090812091881681529252902054905082811015610cad5760405162461bcd60e51b8152600401610596906124e6565b610cc1610cb861135c565b85858403611360565b5060019392505050565b610cd361135c565b6001600160a01b0316610ce4610c34565b6001600160a01b031614610d0a5760405162461bcd60e51b815260040161059690612298565b6000610d14611645565b9050600060fe60ff5481548110610d3b57634e487b7160e01b600052603260045260246000fd5b6000918252602080832060408051606081018252600390940290910180546001600160a01b03908116855260018083015494860194909452600290910154169083015260ff805492945090929091610d94908490612579565b90915550508051604080830151602084015191516323b872dd60e01b81526001600160a01b03909316926323b872dd92610dd49291879190600401611f7e565b600060405180830381600087803b158015610dee57600080fd5b505af1158015610e02573d6000803e3d6000fd5b505050505050565b6000610488610e1761135c565b8484611407565b610100546001600160a01b031681565b6001600160a01b03918216600090815260346020908152604080832093909416825291909152205490565b600054610100900460ff1680610e72575060005460ff16155b610e8e5760405162461bcd60e51b815260040161059690612202565b600054610100900460ff16158015610eb9576000805460ff1961ff0019909116610100171660011790555b610ec284611223565b61010080546001600160a01b0319166001600160a01b0385161790556101018290558015610ef6576000805461ff00191690555b50505050565b610f0461135c565b6001600160a01b0316610f15610c34565b6001600160a01b031614610f3b5760405162461bcd60e51b815260040161059690612298565b6001600160a01b038116610f615760405162461bcd60e51b8152600401610596906120bb565b610f6a816115f3565b50565b60026097541415610f905760405162461bcd60e51b815260040161059690612478565b600260975533600090815260fb602052604090205415801590610fc2575033600090815260fb60205260409020548111155b610fde5760405162461bcd60e51b8152600401610596906123ce565b60008161010154610fef9190612591565b9050806101025410156110145760405162461bcd60e51b81526004016105969061230e565b33600090815260fb6020526040812080548492906110339084906125b0565b925050819055508160fd600082825461104c91906125b0565b9250508190555080610102600082825461106691906125b0565b9091555060009050805b60fc5481101561112557336001600160a01b031660fc82815481106110a557634e487b7160e01b600052603260045260246000fd5b6000918252602090912001546001600160a01b03161480156110c657508382105b156111135760fc81815481106110ec57634e487b7160e01b600052603260045260246000fd5b600091825260209091200180546001600160a01b0319169055611110600183612579565b91505b8061111d8161262e565b915050611070565b506101005460405163a9059cbb60e01b81526000916001600160a01b03169063a9059cbb9061115a9033908790600401611fbc565b602060405180830381600087803b15801561117457600080fd5b505af1158015611188573d6000803e3d6000fd5b505050506040513d601f19601f820116820180604052508101906111ac9190611e0b565b9050806111cb5760405162461bcd60e51b8152600401610596906121d3565b6111d533846116c1565b336001600160a01b03167f29b7634d7bc5a99eff5f680b3fec0cb5c46c4a3c1303c9c436e7b97e4bfa4fb48585604051611210929190611f5c565b60405180910390a2505060016097555050565b600054610100900460ff168061123c575060005460ff16155b6112585760405162461bcd60e51b815260040161059690612202565b600054610100900460ff16158015611283576000805460ff1961ff0019909116610100171660011790555b61128b6117b3565b611293611837565b61129b61189f565b611346604051806040016040528060038152602001620dae8d60eb1b815250836040518060400160405280600f81526020016e26281026b2b73a3430902a37b5b2b760891b8152506040516020016112f593929190611f0c565b604051602081830303815290604052604051806040016040528060038152602001620dae8d60eb1b81525084604051602001611332929190611edd565b60405160208183030381529060405261190f565b8015611358576000805461ff00191690555b5050565b3390565b6001600160a01b0383166113865760405162461bcd60e51b81526004016105969061238a565b6001600160a01b0382166113ac5760405162461bcd60e51b815260040161059690612101565b6001600160a01b0380841660008181526034602090815260408083209487168084529490915290819020849055517f8c5be1e5ebec7d5bd14f71427d1e84f3dd0314c0f7b2291e5b200ac8c7c3b92590610b86908590612562565b6001600160a01b03831661142d5760405162461bcd60e51b815260040161059690612345565b6001600160a01b0382166114535760405162461bcd60e51b815260040161059690612036565b61145e8383836117ae565b6001600160a01b038316600090815260336020526040902054818110156114975760405162461bcd60e51b815260040161059690612143565b6001600160a01b038085166000908152603360205260408082208585039055918516815290812080548492906114ce908490612579565b92505081905550826001600160a01b0316846001600160a01b03167fddf252ad1be2c89b69c2b068fc378daa952ba7f163c4a11628f55a4df523b3ef846040516115189190612562565b60405180910390a3610ef68484846117ae565b6001600160a01b0382166115515760405162461bcd60e51b81526004016105969061252b565b61155d600083836117ae565b806035600082825461156f9190612579565b90915550506001600160a01b0382166000908152603360205260408120805483929061159c908490612579565b90915550506040516001600160a01b038316906000907fddf252ad1be2c89b69c2b068fc378daa952ba7f163c4a11628f55a4df523b3ef906115df908590612562565b60405180910390a3611358600083836117ae565b606580546001600160a01b038381166001600160a01b0319831681179093556040519116919082907f8be0079c531659141344cd1fd0a4f28419497f9722a3daafe3b4186f6b6457e090600090a35050565b60fc5460405160009182916116609042904490602001611f5c565b6040516020818303038152906040528051906020012060001c6116839190612649565b905060fc81815481106116a657634e487b7160e01b600052603260045260246000fd5b6000918252602090912001546001600160a01b031691505090565b6001600160a01b0382166116e75760405162461bcd60e51b8152600401610596906122cd565b6116f3826000836117ae565b6001600160a01b0382166000908152603360205260409020548181101561172c5760405162461bcd60e51b815260040161059690612079565b6001600160a01b038316600090815260336020526040812083830390556035805484929061175b9084906125b0565b90915550506040516000906001600160a01b038516907fddf252ad1be2c89b69c2b068fc378daa952ba7f163c4a11628f55a4df523b3ef9061179e908690612562565b60405180910390a36117ae836000845b505050565b600054610100900460ff16806117cc575060005460ff16155b6117e85760405162461bcd60e51b815260040161059690612202565b600054610100900460ff16158015611813576000805460ff1961ff0019909116610100171660011790555b61181b611997565b611823611a0a565b8015610f6a576000805461ff001916905550565b600054610100900460ff1680611850575060005460ff16155b61186c5760405162461bcd60e51b815260040161059690612202565b600054610100900460ff16158015611897576000805460ff1961ff0019909116610100171660011790555b611823611a7a565b600054610100900460ff16806118b8575060005460ff16155b6118d45760405162461bcd60e51b815260040161059690612202565b600054610100900460ff161580156118ff576000805460ff1961ff0019909116610100171660011790555b611907611997565b611823611af3565b600054610100900460ff1680611928575060005460ff16155b6119445760405162461bcd60e51b815260040161059690612202565b600054610100900460ff1615801561196f576000805460ff1961ff0019909116610100171660011790555b611977611997565b6119818383611b71565b80156117ae576000805461ff0019169055505050565b600054610100900460ff16806119b0575060005460ff16155b6119cc5760405162461bcd60e51b815260040161059690612202565b600054610100900460ff16158015611823576000805460ff1961ff0019909116610100171660011790558015610f6a576000805461ff001916905550565b600054610100900460ff1680611a23575060005460ff16155b611a3f5760405162461bcd60e51b815260040161059690612202565b600054610100900460ff16158015611a6a576000805460ff1961ff0019909116610100171660011790555b611823611a7561135c565b6115f3565b600054610100900460ff1680611a93575060005460ff16155b611aaf5760405162461bcd60e51b815260040161059690612202565b600054610100900460ff16158015611ada576000805460ff1961ff0019909116610100171660011790555b60016097558015610f6a576000805461ff001916905550565b600054610100900460ff1680611b0c575060005460ff16155b611b285760405162461bcd60e51b815260040161059690612202565b600054610100900460ff16158015611b53576000805460ff1961ff0019909116610100171660011790555b60c9805460ff191690558015610f6a576000805461ff001916905550565b600054610100900460ff1680611b8a575060005460ff16155b611ba65760405162461bcd60e51b815260040161059690612202565b600054610100900460ff16158015611bd1576000805460ff1961ff0019909116610100171660011790555b8251611be4906036906020860190611c0f565b508151611bf8906037906020850190611c0f565b5080156117ae576000805461ff0019169055505050565b828054611c1b906125f3565b90600052602060002090601f016020900481019282611c3d5760008555611c83565b82601f10611c5657805160ff1916838001178555611c83565b82800160010185558215611c83579182015b82811115611c83578251825591602001919060010190611c68565b50611c8f929150611c93565b5090565b5b80821115611c8f5760008155600101611c94565b600082601f830112611cb8578081fd5b813567ffffffffffffffff80821115611cd357611cd361267f565b604051601f8301601f191681016020018281118282101715611cf757611cf761267f565b604052828152848301602001861015611d0e578384fd5b82602086016020830137918201602001929092529392505050565b600060208284031215611d3a578081fd5b8135611d4581612695565b9392505050565b600060208284031215611d5d578081fd5b8151611d4581612695565b60008060408385031215611d7a578081fd5b8235611d8581612695565b91506020830135611d9581612695565b809150509250929050565b600080600060608486031215611db4578081fd5b8335611dbf81612695565b92506020840135611dcf81612695565b929592945050506040919091013590565b60008060408385031215611df2578182fd5b8235611dfd81612695565b946020939093013593505050565b600060208284031215611e1c578081fd5b81518015158114611d45578182fd5b600060208284031215611e3c578081fd5b813567ffffffffffffffff811115611e52578182fd5b611e5e84828501611ca8565b949350505050565b600080600060608486031215611e7a578283fd5b833567ffffffffffffffff811115611e90578384fd5b611e9c86828701611ca8565b9350506020840135611dcf81612695565b600060208284031215611ebe578081fd5b5035919050565b600060208284031215611ed6578081fd5b5051919050565b60008351611eef8184602088016125c7565b835190830190611f038183602088016125c7565b01949350505050565b60008451611f1e8184602089016125c7565b845190830190611f328183602089016125c7565b600160fd1b91019081528351611f4f8160018401602088016125c7565b0160010195945050505050565b918252602082015260400190565b6001600160a01b0391909116815260200190565b6001600160a01b039384168152919092166020820152604081019190915260600190565b6001600160a01b0392831681529116602082015260400190565b6001600160a01b03929092168252602082015260400190565b6001600160a01b0393841681526020810192909252909116604082015260600190565b901515815260200190565b60006020825282518060208401526120228160408501602087016125c7565b601f01601f19169190910160400192915050565b60208082526023908201527f45524332303a207472616e7366657220746f20746865207a65726f206164647260408201526265737360e81b606082015260800190565b60208082526022908201527f45524332303a206275726e20616d6f756e7420657863656564732062616c616e604082015261636560f01b606082015260800190565b60208082526026908201527f4f776e61626c653a206e6577206f776e657220697320746865207a65726f206160408201526564647265737360d01b606082015260800190565b60208082526022908201527f45524332303a20617070726f766520746f20746865207a65726f206164647265604082015261737360f01b606082015260800190565b60208082526026908201527f45524332303a207472616e7366657220616d6f756e7420657863656564732062604082015265616c616e636560d01b606082015260800190565b6020808252602a908201527f436f6e7472616374206973206e6f7420616c6c6f77656420746f207472616e7360408201526966657220746f6b656e7360b01b606082015260800190565b602080825260159082015274151bdad95b881d1c985b9cd9995c8819985a5b1959605a1b604082015260600190565b6020808252602e908201527f496e697469616c697a61626c653a20636f6e747261637420697320616c72656160408201526d191e481a5b9a5d1a585b1a5e995960921b606082015260800190565b60208082526028908201527f45524332303a207472616e7366657220616d6f756e74206578636565647320616040820152676c6c6f77616e636560c01b606082015260800190565b6020808252818101527f4f776e61626c653a2063616c6c6572206973206e6f7420746865206f776e6572604082015260600190565b60208082526021908201527f45524332303a206275726e2066726f6d20746865207a65726f206164647265736040820152607360f81b606082015260800190565b6020808252601f908201527f4e6f7420656e6f756768206d6f6e657920696e207468652062616c616e636500604082015260600190565b60208082526025908201527f45524332303a207472616e736665722066726f6d20746865207a65726f206164604082015264647265737360d81b606082015260800190565b60208082526024908201527f45524332303a20617070726f76652066726f6d20746865207a65726f206164646040820152637265737360e01b606082015260800190565b6020808252601e908201527f596f7520646f206e6f74206861766520656e6f756768207469636b6574730000604082015260600190565b60208082526028908201527f436f6e7472616374206973206e6f7420617070726f76656420746f207472616e6040820152671cd9995c8813919560c21b606082015260800190565b6020808252601190820152704e6f7420656e6f75676820746f6b656e7360781b604082015260600190565b6020808252601f908201527f5265656e7472616e637947756172643a207265656e7472616e742063616c6c00604082015260600190565b6020808252601b908201527f412076616c696420616464726573732069732072657175697265640000000000604082015260600190565b60208082526025908201527f45524332303a2064656372656173656420616c6c6f77616e63652062656c6f77604082015264207a65726f60d81b606082015260800190565b6020808252601f908201527f45524332303a206d696e7420746f20746865207a65726f206164647265737300604082015260600190565b90815260200190565b60ff91909116815260200190565b6000821982111561258c5761258c612669565b500190565b60008160001904831182151516156125ab576125ab612669565b500290565b6000828210156125c2576125c2612669565b500390565b60005b838110156125e25781810151838201526020016125ca565b83811115610ef65750506000910152565b60028104600182168061260757607f821691505b6020821081141561262857634e487b7160e01b600052602260045260246000fd5b50919050565b600060001982141561264257612642612669565b5060010190565b60008261266457634e487b7160e01b81526012600452602481fd5b500690565b634e487b7160e01b600052601160045260246000fd5b634e487b7160e01b600052604160045260246000fd5b6001600160a01b0381168114610f6a57600080fdfea2646970667358221220c181b8b930fb4de73f58525da8e01947c61cecd83215437522722bfa685212b864736f6c63430008000033",
  "linkReferences": {},
  "deployedLinkReferences": {}
}