{
  "_format": "hh-sol-artifact-1",
  "contractName": "MenthaSinglePool",
  "sourceName": "contracts/MenthaSinglePool.sol",
  "abi": [
    {
      "anonymous": false,
      "inputs": [
        {
          "indexed": true,
          "internalType": "address",
          "name": "owner",
          "type": "address"
        },
        {
          "indexed": true,
          "internalType": "address",
          "name": "spender",
          "type": "address"
        },
        {
          "indexed": false,
          "internalType": "uint256",
          "name": "value",
          "type": "uint256"
        }
      ],
      "name": "Approval",
      "type": "event"
    },
    {
      "anonymous": false,
      "inputs": [
        {
          "indexed": true,
          "internalType": "address",
          "name": "previousOwner",
          "type": "address"
        },
        {
          "indexed": true,
          "internalType": "address",
          "name": "newOwner",
          "type": "address"
        }
      ],
      "name": "OwnershipTransferred",
      "type": "event"
    },
    {
      "anonymous": false,
      "inputs": [
        {
          "indexed": false,
          "internalType": "address",
          "name": "account",
          "type": "address"
        }
      ],
      "name": "Paused",
      "type": "event"
    },
    {
      "anonymous": false,
      "inputs": [
        {
          "indexed": true,
          "internalType": "address",
          "name": "buyer",
          "type": "address"
        },
        {
          "indexed": false,
          "internalType": "uint256",
          "name": "numberOfTickets",
          "type": "uint256"
        },
        {
          "indexed": false,
          "internalType": "uint256",
          "name": "amount",
          "type": "uint256"
        }
      ],
      "name": "TicketsBought",
      "type": "event"
    },
    {
      "anonymous": false,
      "inputs": [
        {
          "indexed": true,
          "internalType": "address",
          "name": "buyer",
          "type": "address"
        },
        {
          "indexed": false,
          "internalType": "uint256",
          "name": "numberOfTickets",
          "type": "uint256"
        },
        {
          "indexed": false,
          "internalType": "uint256",
          "name": "amount",
          "type": "uint256"
        }
      ],
      "name": "TicketsRedeemed",
      "type": "event"
    },
    {
      "anonymous": false,
      "inputs": [
        {
          "indexed": true,
          "internalType": "address",
          "name": "from",
          "type": "address"
        },
        {
          "indexed": true,
          "internalType": "address",
          "name": "to",
          "type": "address"
        },
        {
          "indexed": false,
          "internalType": "uint256",
          "name": "value",
          "type": "uint256"
        }
      ],
      "name": "Transfer",
      "type": "event"
    },
    {
      "anonymous": false,
      "inputs": [
        {
          "indexed": false,
          "internalType": "address",
          "name": "account",
          "type": "address"
        }
      ],
      "name": "Unpaused",
      "type": "event"
    },
    {
      "inputs": [],
      "name": "TOKEN_NAME_SUFFIX",
      "outputs": [
        {
          "internalType": "string",
          "name": "",
          "type": "string"
        }
      ],
      "stateMutability": "view",
      "type": "function"
    },
    {
      "inputs": [],
      "name": "TOKEN_SYMBOL_PREFIX",
      "outputs": [
        {
          "internalType": "string",
          "name": "",
          "type": "string"
        }
      ],
      "stateMutability": "view",
      "type": "function"
    },
    {
      "inputs": [
        {
          "internalType": "address",
          "name": "owner",
          "type": "address"
        },
        {
          "internalType": "address",
          "name": "spender",
          "type": "address"
        }
      ],
      "name": "allowance",
      "outputs": [
        {
          "internalType": "uint256",
          "name": "",
          "type": "uint256"
        }
      ],
      "stateMutability": "view",
      "type": "function"
    },
    {
      "inputs": [
        {
          "internalType": "address",
          "name": "spender",
          "type": "address"
        },
        {
          "internalType": "uint256",
          "name": "amount",
          "type": "uint256"
        }
      ],
      "name": "approve",
      "outputs": [
        {
          "internalType": "bool",
          "name": "",
          "type": "bool"
        }
      ],
      "stateMutability": "nonpayable",
      "type": "function"
    },
    {
      "inputs": [
        {
          "internalType": "address",
          "name": "account",
          "type": "address"
        }
      ],
      "name": "balanceOf",
      "outputs": [
        {
          "internalType": "uint256",
          "name": "",
          "type": "uint256"
        }
      ],
      "stateMutability": "view",
      "type": "function"
    },
    {
      "inputs": [
        {
          "internalType": "uint256",
          "name": "_numberOfTickets",
          "type": "uint256"
        }
      ],
      "name": "buyTickets",
      "outputs": [],
      "stateMutability": "nonpayable",
      "type": "function"
    },
    {
      "inputs": [],
      "name": "collateral",
      "outputs": [
        {
          "internalType": "contract IERC20",
          "name": "",
          "type": "address"
        }
      ],
      "stateMutability": "view",
      "type": "function"
    },
    {
      "inputs": [],
      "name": "decimals",
      "outputs": [
        {
          "internalType": "uint8",
          "name": "",
          "type": "uint8"
        }
      ],
      "stateMutability": "view",
      "type": "function"
    },
    {
      "inputs": [
        {
          "internalType": "address",
          "name": "spender",
          "type": "address"
        },
        {
          "internalType": "uint256",
          "name": "subtractedValue",
          "type": "uint256"
        }
      ],
      "name": "decreaseAllowance",
      "outputs": [
        {
          "internalType": "bool",
          "name": "",
          "type": "bool"
        }
      ],
      "stateMutability": "nonpayable",
      "type": "function"
    },
    {
      "inputs": [],
      "name": "getBalance",
      "outputs": [
        {
          "internalType": "uint256",
          "name": "",
          "type": "uint256"
        }
      ],
      "stateMutability": "view",
      "type": "function"
    },
    {
      "inputs": [
        {
          "internalType": "address",
          "name": "spender",
          "type": "address"
        },
        {
          "internalType": "uint256",
          "name": "addedValue",
          "type": "uint256"
        }
      ],
      "name": "increaseAllowance",
      "outputs": [
        {
          "internalType": "bool",
          "name": "",
          "type": "bool"
        }
      ],
      "stateMutability": "nonpayable",
      "type": "function"
    },
    {
      "inputs": [
        {
          "internalType": "string",
          "name": "_symbol",
          "type": "string"
        },
        {
          "internalType": "address",
          "name": "_collateral",
          "type": "address"
        },
        {
          "internalType": "uint256",
          "name": "_ticketPrice",
          "type": "uint256"
        }
      ],
      "name": "initialize",
      "outputs": [],
      "stateMutability": "nonpayable",
      "type": "function"
    },
    {
      "inputs": [
        {
          "internalType": "string",
          "name": "_symbol",
          "type": "string"
        }
      ],
      "name": "initialize",
      "outputs": [],
      "stateMutability": "nonpayable",
      "type": "function"
    },
    {
      "inputs": [],
      "name": "name",
      "outputs": [
        {
          "internalType": "string",
          "name": "",
          "type": "string"
        }
      ],
      "stateMutability": "view",
      "type": "function"
    },
    {
      "inputs": [],
      "name": "numberOfTickets",
      "outputs": [
        {
          "internalType": "uint256",
          "name": "",
          "type": "uint256"
        }
      ],
      "stateMutability": "view",
      "type": "function"
    },
    {
      "inputs": [],
      "name": "owner",
      "outputs": [
        {
          "internalType": "address",
          "name": "",
          "type": "address"
        }
      ],
      "stateMutability": "view",
      "type": "function"
    },
    {
      "inputs": [],
      "name": "paused",
      "outputs": [
        {
          "internalType": "bool",
          "name": "",
          "type": "bool"
        }
      ],
      "stateMutability": "view",
      "type": "function"
    },
    {
      "inputs": [
        {
          "internalType": "uint256",
          "name": "_numberOfTickets",
          "type": "uint256"
        }
      ],
      "name": "redeemTickets",
      "outputs": [],
      "stateMutability": "nonpayable",
      "type": "function"
    },
    {
      "inputs": [],
      "name": "renounceOwnership",
      "outputs": [],
      "stateMutability": "nonpayable",
      "type": "function"
    },
    {
      "inputs": [],
      "name": "symbol",
      "outputs": [
        {
          "internalType": "string",
          "name": "",
          "type": "string"
        }
      ],
      "stateMutability": "view",
      "type": "function"
    },
    {
      "inputs": [],
      "name": "ticketPrice",
      "outputs": [
        {
          "internalType": "uint256",
          "name": "",
          "type": "uint256"
        }
      ],
      "stateMutability": "view",
      "type": "function"
    },
    {
      "inputs": [
        {
          "internalType": "address",
          "name": "_addr",
          "type": "address"
        }
      ],
      "name": "ticketsOf",
      "outputs": [
        {
          "internalType": "uint256",
          "name": "",
          "type": "uint256"
        }
      ],
      "stateMutability": "view",
      "type": "function"
    },
    {
      "inputs": [],
      "name": "totalCollateral",
      "outputs": [
        {
          "internalType": "uint256",
          "name": "",
          "type": "uint256"
        }
      ],
      "stateMutability": "view",
      "type": "function"
    },
    {
      "inputs": [],
      "name": "totalSupply",
      "outputs": [
        {
          "internalType": "uint256",
          "name": "",
          "type": "uint256"
        }
      ],
      "stateMutability": "view",
      "type": "function"
    },
    {
      "inputs": [
        {
          "internalType": "address",
          "name": "recipient",
          "type": "address"
        },
        {
          "internalType": "uint256",
          "name": "amount",
          "type": "uint256"
        }
      ],
      "name": "transfer",
      "outputs": [
        {
          "internalType": "bool",
          "name": "",
          "type": "bool"
        }
      ],
      "stateMutability": "nonpayable",
      "type": "function"
    },
    {
      "inputs": [
        {
          "internalType": "address",
          "name": "sender",
          "type": "address"
        },
        {
          "internalType": "address",
          "name": "recipient",
          "type": "address"
        },
        {
          "internalType": "uint256",
          "name": "amount",
          "type": "uint256"
        }
      ],
      "name": "transferFrom",
      "outputs": [
        {
          "internalType": "bool",
          "name": "",
          "type": "bool"
        }
      ],
      "stateMutability": "nonpayable",
      "type": "function"
    },
    {
      "inputs": [
        {
          "internalType": "address",
          "name": "newOwner",
          "type": "address"
        }
      ],
      "name": "transferOwnership",
      "outputs": [],
      "stateMutability": "nonpayable",
      "type": "function"
    }
  ],
  "bytecode": "0x608060405234801561001057600080fd5b50611f0d806100206000396000f3fe608060405234801561001057600080fd5b50600436106101a95760003560e01c8063557323c7116100f9578063a9059cbb11610097578063e0921f8511610071578063e0921f8514610315578063f2fde38b14610328578063f4fe103a1461033b578063f62d18881461034e576101a9565b8063a9059cbb146102e7578063d8dfeb45146102fa578063dd62ed3e14610302576101a9565b8063715018a6116100d3578063715018a6146102af5780638da5cb5b146102b757806395d89b41146102cc578063a457c2d7146102d4576101a9565b8063557323c71461028c5780635c975abb1461029457806370a082311461029c576101a9565b80632940e8281161016657806331657926116101405780633165792614610256578063395093511461026957806345745c101461027c5780634ac8eb5f14610284576101a9565b80632940e828146102245780632f3666371461022c578063313ce56714610241576101a9565b806306fdde03146101ae578063095ea7b3146101cc57806312065fe0146101ec5780631209b1f61461020157806318160ddd1461020957806323b872dd14610211575b600080fd5b6101b6610361565b6040516101c39190611990565b60405180910390f35b6101df6101da3660046117a2565b6103f3565b6040516101c39190611985565b6101f4610410565b6040516101c39190611db6565b6101f4610496565b6101f461049c565b6101df61021f366004611767565b6104a2565b6101b661053b565b61023f61023a36600461186b565b61055a565b005b610249610851565b6040516101c39190611dcd565b6101f4610264366004611714565b610856565b6101df6102773660046117a2565b610875565b6101f46108c9565b6101f46108cf565b6101b66108d6565b6101df610901565b6101f46102aa366004611714565b61090a565b61023f610925565b6102bf610970565b6040516101c3919061191a565b6101b661097f565b6101df6102e23660046117a2565b61098e565b6101df6102f53660046117a2565b610a07565b6102bf610a1b565b6101f4610310366004611735565b610a2a565b61023f610323366004611826565b610a55565b61023f610336366004611714565b610af6565b61023f61034936600461186b565b610b67565b61023f61035c3660046117eb565b610bea565b60606036805461037090611e55565b80601f016020809104026020016040519081016040528092919081815260200182805461039c90611e55565b80156103e95780601f106103be576101008083540402835291602001916103e9565b820191906000526020600020905b8154815290600101906020018083116103cc57829003601f168201915b5050505050905090565b6000610407610400610d23565b8484610d27565b50600192915050565b60fe546040516370a0823160e01b81526000916001600160a01b0316906370a082319061044190309060040161191a565b60206040518083038186803b15801561045957600080fd5b505afa15801561046d573d6000803e3d6000fd5b505050506040513d601f19601f820116820180604052508101906104919190611883565b905090565b60ff5481565b60355490565b60006104af848484610ddb565b6001600160a01b0384166000908152603460205260408120816104d0610d23565b6001600160a01b03166001600160a01b031681526020019081526020016000205490508281101561051c5760405162461bcd60e51b815260040161051390611b9b565b60405180910390fd5b61053085610528610d23565b858403610d27565b506001949350505050565b604051806040016040528060038152602001620dae8d60eb1b81525081565b60008160ff5461056a9190611df3565b60fe546040516370a0823160e01b815291925082916001600160a01b03909116906370a082319061059f90339060040161191a565b60206040518083038186803b1580156105b757600080fd5b505afa1580156105cb573d6000803e3d6000fd5b505050506040513d601f19601f820116820180604052508101906105ef9190611883565b101561060d5760405162461bcd60e51b815260040161051390611d0f565b33600090815260fb60205260408120805484929061062c908490611ddb565b90915550600090505b828110156106915760fc80546001810182556000919091527f371f36870d18f32a11fea0f144b021c8b407bb50f8e0267c711123f454b963c00180546001600160a01b031916331790558061068981611e90565b915050610635565b508160fd60008282546106a49190611ddb565b925050819055508061010060008282546106be9190611ddb565b909155505060fe54604051636eb1769f60e11b815282916001600160a01b03169063dd62ed3e906106f5903390309060040161192e565b60206040518083038186803b15801561070d57600080fd5b505afa158015610721573d6000803e3d6000fd5b505050506040513d601f19601f820116820180604052508101906107459190611883565b10156107635760405162461bcd60e51b815260040161051390611ad4565b60fe546040516323b872dd60e01b81526000916001600160a01b0316906323b872dd9061079890339030908790600401611948565b602060405180830381600087803b1580156107b257600080fd5b505af11580156107c6573d6000803e3d6000fd5b505050506040513d601f19601f820116820180604052508101906107ea91906117cb565b9050806108095760405162461bcd60e51b815260040161051390611b1e565b336001600160a01b03167fb0ebd247b49b0f0079dfe3093ede3e56ddb43164363f38bf1576023c076ab4f28484604051610844929190611dbf565b60405180910390a2505050565b601290565b6001600160a01b038116600090815260fb60205260409020545b919050565b6000610407610882610d23565b848460346000610890610d23565b6001600160a01b03908116825260208083019390935260409182016000908120918b16815292529020546108c49190611ddb565b610d27565b60fd5481565b6101005481565b6040518060400160405280600f81526020016e26281026b2b73a3430902a37b5b2b760891b81525081565b60c95460ff1690565b6001600160a01b031660009081526033602052604090205490565b61092d610d23565b6001600160a01b031661093e610970565b6001600160a01b0316146109645760405162461bcd60e51b815260040161051390611be3565b61096e6000610eff565b565b6065546001600160a01b031690565b60606037805461037090611e55565b6000806034600061099d610d23565b6001600160a01b03908116825260208083019390935260409182016000908120918816815292529020549050828110156109e95760405162461bcd60e51b815260040161051390611d71565b6109fd6109f4610d23565b85858403610d27565b5060019392505050565b6000610407610a14610d23565b8484610ddb565b60fe546001600160a01b031681565b6001600160a01b03918216600090815260346020908152604080832093909416825291909152205490565b600054610100900460ff1680610a6e575060005460ff16155b610a8a5760405162461bcd60e51b815260040161051390611b4d565b600054610100900460ff16158015610ab5576000805460ff1961ff0019909116610100171660011790555b610abe84610bea565b60fe80546001600160a01b0319166001600160a01b03851617905560ff8290558015610af0576000805461ff00191690555b50505050565b610afe610d23565b6001600160a01b0316610b0f610970565b6001600160a01b031614610b355760405162461bcd60e51b815260040161051390611be3565b6001600160a01b038116610b5b5760405162461bcd60e51b815260040161051390611a06565b610b6481610eff565b50565b60026097541415610b8a5760405162461bcd60e51b815260040161051390611d3a565b600260975533600090815260fb602052604090205415801590610bbc575033600090815260fb60205260409020548111155b610bd85760405162461bcd60e51b815260040161051390611cd8565b610be28133610f51565b506001609755565b600054610100900460ff1680610c03575060005460ff16155b610c1f5760405162461bcd60e51b815260040161051390611b4d565b600054610100900460ff16158015610c4a576000805460ff1961ff0019909116610100171660011790555b610c52611186565b610c5a61120a565b610c62611272565b610d0d604051806040016040528060038152602001620dae8d60eb1b815250836040518060400160405280600f81526020016e26281026b2b73a3430902a37b5b2b760891b815250604051602001610cbc939291906118ca565b604051602081830303815290604052604051806040016040528060038152602001620dae8d60eb1b81525084604051602001610cf992919061189b565b6040516020818303038152906040526112e2565b8015610d1f576000805461ff00191690555b5050565b3390565b6001600160a01b038316610d4d5760405162461bcd60e51b815260040161051390611c94565b6001600160a01b038216610d735760405162461bcd60e51b815260040161051390611a4c565b6001600160a01b0380841660008181526034602090815260408083209487168084529490915290819020849055517f8c5be1e5ebec7d5bd14f71427d1e84f3dd0314c0f7b2291e5b200ac8c7c3b92590610dce908590611db6565b60405180910390a3505050565b6001600160a01b038316610e015760405162461bcd60e51b815260040161051390611c4f565b6001600160a01b038216610e275760405162461bcd60e51b8152600401610513906119c3565b610e32838383611366565b6001600160a01b03831660009081526033602052604090205481811015610e6b5760405162461bcd60e51b815260040161051390611a8e565b6001600160a01b03808516600090815260336020526040808220858503905591851681529081208054849290610ea2908490611ddb565b92505081905550826001600160a01b0316846001600160a01b03167fddf252ad1be2c89b69c2b068fc378daa952ba7f163c4a11628f55a4df523b3ef84604051610eec9190611db6565b60405180910390a3610af0848484611366565b606580546001600160a01b038381166001600160a01b0319831681179093556040519116919082907f8be0079c531659141344cd1fd0a4f28419497f9722a3daafe3b4186f6b6457e090600090a35050565b60008260ff54610f619190611df3565b905080610100541015610f865760405162461bcd60e51b815260040161051390611c18565b33600090815260fb602052604081208054859290610fa5908490611e12565b925050819055508260fd6000828254610fbe9190611e12565b92505081905550806101006000828254610fd89190611e12565b9091555060009050805b60fc5481101561109757836001600160a01b031660fc828154811061101757634e487b7160e01b600052603260045260246000fd5b6000918252602090912001546001600160a01b031614801561103857508482105b156110855760fc818154811061105e57634e487b7160e01b600052603260045260246000fd5b600091825260209091200180546001600160a01b0319169055611082600183611ddb565b91505b8061108f81611e90565b915050610fe2565b5060fe5460405163a9059cbb60e01b81526000916001600160a01b03169063a9059cbb906110cb903390879060040161196c565b602060405180830381600087803b1580156110e557600080fd5b505af11580156110f9573d6000803e3d6000fd5b505050506040513d601f19601f8201168201806040525081019061111d91906117cb565b90508061113c5760405162461bcd60e51b815260040161051390611b1e565b336001600160a01b03167f29b7634d7bc5a99eff5f680b3fec0cb5c46c4a3c1303c9c436e7b97e4bfa4fb48685604051611177929190611dbf565b60405180910390a25050505050565b600054610100900460ff168061119f575060005460ff16155b6111bb5760405162461bcd60e51b815260040161051390611b4d565b600054610100900460ff161580156111e6576000805460ff1961ff0019909116610100171660011790555b6111ee61136b565b6111f66113de565b8015610b64576000805461ff001916905550565b600054610100900460ff1680611223575060005460ff16155b61123f5760405162461bcd60e51b815260040161051390611b4d565b600054610100900460ff1615801561126a576000805460ff1961ff0019909116610100171660011790555b6111f661144e565b600054610100900460ff168061128b575060005460ff16155b6112a75760405162461bcd60e51b815260040161051390611b4d565b600054610100900460ff161580156112d2576000805460ff1961ff0019909116610100171660011790555b6112da61136b565b6111f66114c7565b600054610100900460ff16806112fb575060005460ff16155b6113175760405162461bcd60e51b815260040161051390611b4d565b600054610100900460ff16158015611342576000805460ff1961ff0019909116610100171660011790555b61134a61136b565b6113548383611545565b8015611366576000805461ff00191690555b505050565b600054610100900460ff1680611384575060005460ff16155b6113a05760405162461bcd60e51b815260040161051390611b4d565b600054610100900460ff161580156111f6576000805460ff1961ff0019909116610100171660011790558015610b64576000805461ff001916905550565b600054610100900460ff16806113f7575060005460ff16155b6114135760405162461bcd60e51b815260040161051390611b4d565b600054610100900460ff1615801561143e576000805460ff1961ff0019909116610100171660011790555b6111f6611449610d23565b610eff565b600054610100900460ff1680611467575060005460ff16155b6114835760405162461bcd60e51b815260040161051390611b4d565b600054610100900460ff161580156114ae576000805460ff1961ff0019909116610100171660011790555b60016097558015610b64576000805461ff001916905550565b600054610100900460ff16806114e0575060005460ff16155b6114fc5760405162461bcd60e51b815260040161051390611b4d565b600054610100900460ff16158015611527576000805460ff1961ff0019909116610100171660011790555b60c9805460ff191690558015610b64576000805461ff001916905550565b600054610100900460ff168061155e575060005460ff16155b61157a5760405162461bcd60e51b815260040161051390611b4d565b600054610100900460ff161580156115a5576000805460ff1961ff0019909116610100171660011790555b82516115b89060369060208601906115e3565b5081516115cc9060379060208501906115e3565b508015611366576000805461ff0019169055505050565b8280546115ef90611e55565b90600052602060002090601f0160209004810192826116115760008555611657565b82601f1061162a57805160ff1916838001178555611657565b82800160010185558215611657579182015b8281111561165757825182559160200191906001019061163c565b50611663929150611667565b5090565b5b808211156116635760008155600101611668565b80356001600160a01b038116811461087057600080fd5b600082601f8301126116a3578081fd5b813567ffffffffffffffff808211156116be576116be611ec1565b604051601f8301601f1916810160200182811182821017156116e2576116e2611ec1565b6040528281528483016020018610156116f9578384fd5b82602086016020830137918201602001929092529392505050565b600060208284031215611725578081fd5b61172e8261167c565b9392505050565b60008060408385031215611747578081fd5b6117508361167c565b915061175e6020840161167c565b90509250929050565b60008060006060848603121561177b578081fd5b6117848461167c565b92506117926020850161167c565b9150604084013590509250925092565b600080604083850312156117b4578182fd5b6117bd8361167c565b946020939093013593505050565b6000602082840312156117dc578081fd5b8151801515811461172e578182fd5b6000602082840312156117fc578081fd5b813567ffffffffffffffff811115611812578182fd5b61181e84828501611693565b949350505050565b60008060006060848603121561183a578283fd5b833567ffffffffffffffff811115611850578384fd5b61185c86828701611693565b9350506117926020850161167c565b60006020828403121561187c578081fd5b5035919050565b600060208284031215611894578081fd5b5051919050565b600083516118ad818460208801611e29565b8351908301906118c1818360208801611e29565b01949350505050565b600084516118dc818460208901611e29565b8451908301906118f0818360208901611e29565b600160fd1b9101908152835161190d816001840160208801611e29565b0160010195945050505050565b6001600160a01b0391909116815260200190565b6001600160a01b0392831681529116602082015260400190565b6001600160a01b039384168152919092166020820152604081019190915260600190565b6001600160a01b03929092168252602082015260400190565b901515815260200190565b60006020825282518060208401526119af816040850160208701611e29565b601f01601f19169190910160400192915050565b60208082526023908201527f45524332303a207472616e7366657220746f20746865207a65726f206164647260408201526265737360e81b606082015260800190565b60208082526026908201527f4f776e61626c653a206e6577206f776e657220697320746865207a65726f206160408201526564647265737360d01b606082015260800190565b60208082526022908201527f45524332303a20617070726f766520746f20746865207a65726f206164647265604082015261737360f01b606082015260800190565b60208082526026908201527f45524332303a207472616e7366657220616d6f756e7420657863656564732062604082015265616c616e636560d01b606082015260800190565b6020808252602a908201527f436f6e7472616374206973206e6f7420616c6c6f77656420746f207472616e7360408201526966657220746f6b656e7360b01b606082015260800190565b602080825260159082015274151bdad95b881d1c985b9cd9995c8819985a5b1959605a1b604082015260600190565b6020808252602e908201527f496e697469616c697a61626c653a20636f6e747261637420697320616c72656160408201526d191e481a5b9a5d1a585b1a5e995960921b606082015260800190565b60208082526028908201527f45524332303a207472616e7366657220616d6f756e74206578636565647320616040820152676c6c6f77616e636560c01b606082015260800190565b6020808252818101527f4f776e61626c653a2063616c6c6572206973206e6f7420746865206f776e6572604082015260600190565b6020808252601f908201527f4e6f7420656e6f756768206d6f6e657920696e207468652062616c616e636500604082015260600190565b60208082526025908201527f45524332303a207472616e736665722066726f6d20746865207a65726f206164604082015264647265737360d81b606082015260800190565b60208082526024908201527f45524332303a20617070726f76652066726f6d20746865207a65726f206164646040820152637265737360e01b606082015260800190565b6020808252601e908201527f596f7520646f206e6f74206861766520656e6f756768207469636b6574730000604082015260600190565b6020808252601190820152704e6f7420656e6f75676820746f6b656e7360781b604082015260600190565b6020808252601f908201527f5265656e7472616e637947756172643a207265656e7472616e742063616c6c00604082015260600190565b60208082526025908201527f45524332303a2064656372656173656420616c6c6f77616e63652062656c6f77604082015264207a65726f60d81b606082015260800190565b90815260200190565b918252602082015260400190565b60ff91909116815260200190565b60008219821115611dee57611dee611eab565b500190565b6000816000190483118215151615611e0d57611e0d611eab565b500290565b600082821015611e2457611e24611eab565b500390565b60005b83811015611e44578181015183820152602001611e2c565b83811115610af05750506000910152565b600281046001821680611e6957607f821691505b60208210811415611e8a57634e487b7160e01b600052602260045260246000fd5b50919050565b6000600019821415611ea457611ea4611eab565b5060010190565b634e487b7160e01b600052601160045260246000fd5b634e487b7160e01b600052604160045260246000fdfea2646970667358221220be61f71547414bd9c3a66c10bee64bb18f6e732f3190acc229406fa5ab66a26864736f6c63430008000033",
  "linkReferences": {},
  "deployedLinkReferences": {}
}